{"abi":[{"type":"constructor","inputs":[{"name":"_stakeManager","type":"address","internalType":"address"},{"name":"_ipOrDomain","type":"string","internalType":"string"},{"name":"_apiIndexes","type":"string","internalType":"string"}],"stateMutability":"nonpayable"},{"type":"function","name":"MIN_STAKE_AMOUNT","inputs":[],"outputs":[{"name":"","type":"uint256","internalType":"uint256"}],"stateMutability":"view"},{"type":"function","name":"getNodeInfo","inputs":[{"name":"nodeAddress","type":"address","internalType":"address"}],"outputs":[{"name":"ipOrDomain","type":"string","internalType":"string"},{"name":"apiIndexes","type":"string","internalType":"string"},{"name":"registeredAt","type":"uint256","internalType":"uint256"}],"stateMutability":"view"},{"type":"function","name":"getNodesInfo","inputs":[{"name":"start","type":"uint256","internalType":"uint256"},{"name":"limit","type":"uint256","internalType":"uint256"}],"outputs":[{"name":"addresses","type":"address[]","internalType":"address[]"},{"name":"ipOrDomains","type":"string[]","internalType":"string[]"},{"name":"apiIndexesList","type":"string[]","internalType":"string[]"},{"name":"registeredAts","type":"uint256[]","internalType":"uint256[]"}],"stateMutability":"view"},{"type":"function","name":"getRegisteredNodesCount","inputs":[],"outputs":[{"name":"","type":"uint256","internalType":"uint256"}],"stateMutability":"view"},{"type":"function","name":"isRegistered","inputs":[{"name":"nodeAddress","type":"address","internalType":"address"}],"outputs":[{"name":"","type":"bool","internalType":"bool"}],"stateMutability":"view"},{"type":"function","name":"nodes","inputs":[{"name":"","type":"address","internalType":"address"}],"outputs":[{"name":"ipOrDomain","type":"string","internalType":"string"},{"name":"apiIndexes","type":"string","internalType":"string"},{"name":"registeredAt","type":"uint256","internalType":"uint256"}],"stateMutability":"view"},{"type":"function","name":"registerNode","inputs":[{"name":"nodeAddress","type":"address","internalType":"address"},{"name":"ipOrDomain","type":"string","internalType":"string"},{"name":"apiIndexes","type":"string","internalType":"string"},{"name":"challenge","type":"bytes32","internalType":"bytes32"},{"name":"signature","type":"bytes","internalType":"bytes"}],"outputs":[],"stateMutability":"nonpayable"},{"type":"function","name":"registeredNodes","inputs":[{"name":"","type":"uint256","internalType":"uint256"}],"outputs":[{"name":"","type":"address","internalType":"address"}],"stateMutability":"view"},{"type":"function","name":"stakeManager","inputs":[],"outputs":[{"name":"","type":"address","internalType":"address"}],"stateMutability":"view"},{"type":"function","name":"validateStake","inputs":[{"name":"nodeAddress","type":"address","internalType":"address"}],"outputs":[{"name":"","type":"bool","internalType":"bool"}],"stateMutability":"view"},{"type":"event","name":"NodeRegistered","inputs":[{"name":"nodeAddress","type":"address","indexed":true,"internalType":"address"},{"name":"registrarAddress","type":"address","indexed":true,"internalType":"address"},{"name":"ipOrDomain","type":"string","indexed":false,"internalType":"string"},{"name":"apiIndexes","type":"string","indexed":false,"internalType":"string"}],"anonymous":false}],"bytecode":{"object":"0x60a06040523480156200001157600080fd5b5060405162001a6038038062001a6083398101604081905262000034916200035d565b60016000556001600160a01b038316620000955760405162461bcd60e51b815260206004820152601d60248201527f496e76616c6964207374616b65206d616e61676572206164647265737300000060448201526064015b60405180910390fd5b6001600160a01b038316608052620000ad33620001ec565b620001065760405162461bcd60e51b815260206004820152602260248201527f4465706c6f79657220696e73756666696369656e74207374616b6520616d6f756044820152611b9d60f21b60648201526084016200008c565b6040805160608101825283815260208082018490524282840152336000908152600190915291909120815181906200013f908262000478565b506020820151600182019062000156908262000478565b5060409182015160029182015580546001810182556000919091527f405787fa12a823e0f2b7631cc41b3ba8828b3321ca811111fa75cd3aa3bb5ace0180546001600160a01b03191633908117909155905181907ffc8446bd09389300b8302e97cc1f4477498dba04dc4eb2e92f1a8f536564a90290620001db908690869062000572565b60405180910390a3505050620005be565b6080516000906001600160a01b03166200020857506001919050565b608051604051630c2eb40360e01b81526001600160a01b03848116600483015260009190831690630c2eb40390602401602060405180830381865afa15801562000256573d6000803e3d6000fd5b505050506040513d601f19601f820116820180604052508101906200027c9190620005a4565b683635c9adc5dea000001115949350505050565b634e487b7160e01b600052604160045260246000fd5b60005b83811015620002c3578181015183820152602001620002a9565b50506000910152565b600082601f830112620002de57600080fd5b81516001600160401b0380821115620002fb57620002fb62000290565b604051601f8301601f19908116603f0116810190828211818310171562000326576200032662000290565b816040528381528660208588010111156200034057600080fd5b62000353846020830160208901620002a6565b9695505050505050565b6000806000606084860312156200037357600080fd5b83516001600160a01b03811681146200038b57600080fd5b60208501519093506001600160401b0380821115620003a957600080fd5b620003b787838801620002cc565b93506040860151915080821115620003ce57600080fd5b50620003dd86828701620002cc565b9150509250925092565b600181811c90821680620003fc57607f821691505b6020821081036200041d57634e487b7160e01b600052602260045260246000fd5b50919050565b601f82111562000473576000816000526020600020601f850160051c810160208610156200044e5750805b601f850160051c820191505b818110156200046f578281556001016200045a565b5050505b505050565b81516001600160401b0381111562000494576200049462000290565b620004ac81620004a58454620003e7565b8462000423565b602080601f831160018114620004e45760008415620004cb5750858301515b600019600386901b1c1916600185901b1785556200046f565b600085815260208120601f198616915b828110156200051557888601518255948401946001909101908401620004f4565b5085821015620005345787850151600019600388901b60f8161c191681555b5050505050600190811b01905550565b600081518084526200055e816020860160208601620002a6565b601f01601f19169290920160200192915050565b60408152600062000587604083018562000544565b82810360208401526200059b818562000544565b95945050505050565b600060208284031215620005b757600080fd5b5051919050565b608051611478620005e86000396000818161018a01528181610a990152610aec01526114786000f3fe608060405234801561001057600080fd5b506004361061009e5760003560e01c80635e7b71dd116100665780635e7b71dd1461013757806361ca89fa1461015a5780637542ff9514610185578063c3c5a547146101ac578063fd74c776146101da57600080fd5b8063189a5a17146100a35780631cd8c9d1146100ce57806327ed7188146100e35780632cc71ff914610101578063582115fb14610124575b600080fd5b6100b66100b1366004610f04565b6101e2565b6040516100c593929190610f6c565b60405180910390f35b6100e16100dc36600461104e565b610314565b005b6100f3683635c9adc5dea0000081565b6040519081526020016100c5565b61011461010f366004611105565b610584565b6040516100c59493929190611181565b6100b6610132366004610f04565b610916565b61014a610145366004610f04565b610a95565b60405190151581526020016100c5565b61016d61016836600461122f565b610b70565b6040516001600160a01b0390911681526020016100c5565b61016d7f000000000000000000000000000000000000000000000000000000000000000081565b61014a6101ba366004610f04565b6001600160a01b0316600090815260016020526040902060020154151590565b6002546100f3565b6001602052600090815260409020805481906101fd90611248565b80601f016020809104026020016040519081016040528092919081815260200182805461022990611248565b80156102765780601f1061024b57610100808354040283529160200191610276565b820191906000526020600020905b81548152906001019060200180831161025957829003601f168201915b50505050509080600101805461028b90611248565b80601f01602080910402602001604051908101604052809291908181526020018280546102b790611248565b80156103045780601f106102d957610100808354040283529160200191610304565b820191906000526020600020905b8154815290600101906020018083116102e757829003601f168201915b5050505050908060020154905083565b61031c610b9a565b336000908152600160205260409020600201546103805760405162461bcd60e51b815260206004820152601860248201527f526567697374726172206e6f742072656769737465726564000000000000000060448201526064015b60405180910390fd5b6001600160a01b038516600090815260016020526040902060020154156103e95760405162461bcd60e51b815260206004820152601760248201527f4e6f646520616c726561647920726567697374657265640000000000000000006044820152606401610377565b6103f4858383610bf3565b6104345760405162461bcd60e51b8152602060048201526011602482015270496e76616c6964207369676e617475726560781b6044820152606401610377565b61043d85610a95565b6104895760405162461bcd60e51b815260206004820152601960248201527f496e73756666696369656e74207374616b6520616d6f756e74000000000000006044820152606401610377565b60408051606081018252858152602080820186905242828401526001600160a01b0388166000908152600190915291909120815181906104c990826112d3565b50602082015160018201906104de90826112d3565b5060409182015160029182015580546001810182556000919091527f405787fa12a823e0f2b7631cc41b3ba8828b3321ca811111fa75cd3aa3bb5ace0180546001600160a01b0319166001600160a01b03881690811790915590513391907ffc8446bd09389300b8302e97cc1f4477498dba04dc4eb2e92f1a8f536564a9029061056b9088908890611393565b60405180910390a361057d6001600055565b5050505050565b6060808080600061059586886113d7565b6002549091508111156105a757506002545b60006105b388836113ea565b90508067ffffffffffffffff8111156105ce576105ce610fa2565b6040519080825280602002602001820160405280156105f7578160200160208202803683370190505b5095508067ffffffffffffffff81111561061357610613610fa2565b60405190808252806020026020018201604052801561064657816020015b60608152602001906001900390816106315790505b5094508067ffffffffffffffff81111561066257610662610fa2565b60405190808252806020026020018201604052801561069557816020015b60608152602001906001900390816106805790505b5093508067ffffffffffffffff8111156106b1576106b1610fa2565b6040519080825280602002602001820160405280156106da578160200160208202803683370190505b50925060005b8181101561090a57600060026106f6838c6113d7565b81548110610706576107066113fd565b60009182526020808320909101546001600160a01b031680835260019091526040808320815160608101909252805492945090918290829061074790611248565b80601f016020809104026020016040519081016040528092919081815260200182805461077390611248565b80156107c05780601f10610795576101008083540402835291602001916107c0565b820191906000526020600020905b8154815290600101906020018083116107a357829003601f168201915b505050505081526020016001820180546107d990611248565b80601f016020809104026020016040519081016040528092919081815260200182805461080590611248565b80156108525780601f1061082757610100808354040283529160200191610852565b820191906000526020600020905b81548152906001019060200180831161083557829003601f168201915b5050505050815260200160028201548152505090508189848151811061087a5761087a6113fd565b60200260200101906001600160a01b031690816001600160a01b03168152505080600001518884815181106108b1576108b16113fd565b602002602001018190525080602001518784815181106108d3576108d36113fd565b602002602001018190525080604001518684815181106108f5576108f56113fd565b602090810291909101015250506001016106e0565b50505092959194509250565b60608060008060016000866001600160a01b03166001600160a01b0316815260200190815260200160002060405180606001604052908160008201805461095c90611248565b80601f016020809104026020016040519081016040528092919081815260200182805461098890611248565b80156109d55780601f106109aa576101008083540402835291602001916109d5565b820191906000526020600020905b8154815290600101906020018083116109b857829003601f168201915b505050505081526020016001820180546109ee90611248565b80601f0160208091040260200160405190810160405280929190818152602001828054610a1a90611248565b8015610a675780601f10610a3c57610100808354040283529160200191610a67565b820191906000526020600020905b815481529060010190602001808311610a4a57829003601f168201915b5050509183525050600291909101546020918201528151908201516040909201519097919650945092505050565b60007f00000000000000000000000000000000000000000000000000000000000000006001600160a01b0316610acd57506001919050565b604051630c2eb40360e01b81526001600160a01b0383811660048301527f000000000000000000000000000000000000000000000000000000000000000091600091831690630c2eb40390602401602060405180830381865afa158015610b38573d6000803e3d6000fd5b505050506040513d601f19601f82011682018060405250810190610b5c9190611413565b683635c9adc5dea000001115949350505050565b60028181548110610b8057600080fd5b6000918252602090912001546001600160a01b0316905081565b600260005403610bec5760405162461bcd60e51b815260206004820152601f60248201527f5265656e7472616e637947756172643a207265656e7472616e742063616c6c006044820152606401610377565b6002600055565b6040517f19457468657265756d205369676e6564204d6573736167653a0a3332000000006020820152603c81018390526000908190605c0160408051601f19818403018152919052805160209091012090506001600160a01b038516610c598285610c6c565b6001600160a01b03161495945050505050565b6000806000610c7b8585610c92565b91509150610c8881610cd7565b5090505b92915050565b6000808251604103610cc85760208301516040840151606085015160001a610cbc87828585610e24565b94509450505050610cd0565b506000905060025b9250929050565b6000816004811115610ceb57610ceb61142c565b03610cf35750565b6001816004811115610d0757610d0761142c565b03610d545760405162461bcd60e51b815260206004820152601860248201527f45434453413a20696e76616c6964207369676e617475726500000000000000006044820152606401610377565b6002816004811115610d6857610d6861142c565b03610db55760405162461bcd60e51b815260206004820152601f60248201527f45434453413a20696e76616c6964207369676e6174757265206c656e677468006044820152606401610377565b6003816004811115610dc957610dc961142c565b03610e215760405162461bcd60e51b815260206004820152602260248201527f45434453413a20696e76616c6964207369676e6174757265202773272076616c604482015261756560f01b6064820152608401610377565b50565b6000807f7fffffffffffffffffffffffffffffff5d576e7357a4501ddfe92f46681b20a0831115610e5b5750600090506003610edf565b6040805160008082526020820180845289905260ff881692820192909252606081018690526080810185905260019060a0016020604051602081039080840390855afa158015610eaf573d6000803e3d6000fd5b5050604051601f1901519150506001600160a01b038116610ed857600060019250925050610edf565b9150600090505b94509492505050565b80356001600160a01b0381168114610eff57600080fd5b919050565b600060208284031215610f1657600080fd5b610f1f82610ee8565b9392505050565b6000815180845260005b81811015610f4c57602081850181015186830182015201610f30565b506000602082860101526020601f19601f83011685010191505092915050565b606081526000610f7f6060830186610f26565b8281036020840152610f918186610f26565b915050826040830152949350505050565b634e487b7160e01b600052604160045260246000fd5b600067ffffffffffffffff80841115610fd357610fd3610fa2565b604051601f8501601f19908116603f01168101908282118183101715610ffb57610ffb610fa2565b8160405280935085815286868601111561101457600080fd5b858560208301376000602087830101525050509392505050565b600082601f83011261103f57600080fd5b610f1f83833560208501610fb8565b600080600080600060a0868803121561106657600080fd5b61106f86610ee8565b9450602086013567ffffffffffffffff8082111561108c57600080fd5b61109889838a0161102e565b955060408801359150808211156110ae57600080fd5b6110ba89838a0161102e565b94506060880135935060808801359150808211156110d757600080fd5b508601601f810188136110e957600080fd5b6110f888823560208401610fb8565b9150509295509295909350565b6000806040838503121561111857600080fd5b50508035926020909101359150565b60008282518085526020808601955060208260051b8401016020860160005b8481101561117457601f19868403018952611162838351610f26565b98840198925090830190600101611146565b5090979650505050505050565b6080808252855190820181905260009060209060a0840190828901845b828110156111c35781516001600160a01b03168452928401929084019060010161119e565b505050838103828501526111d78188611127565b905083810360408501526111eb8187611127565b8481036060860152855180825283870192509083019060005b8181101561122057835183529284019291840191600101611204565b50909998505050505050505050565b60006020828403121561124157600080fd5b5035919050565b600181811c9082168061125c57607f821691505b60208210810361127c57634e487b7160e01b600052602260045260246000fd5b50919050565b601f8211156112ce576000816000526020600020601f850160051c810160208610156112ab5750805b601f850160051c820191505b818110156112ca578281556001016112b7565b5050505b505050565b815167ffffffffffffffff8111156112ed576112ed610fa2565b611301816112fb8454611248565b84611282565b602080601f831160018114611336576000841561131e5750858301515b600019600386901b1c1916600185901b1785556112ca565b600085815260208120601f198616915b8281101561136557888601518255948401946001909101908401611346565b50858210156113835787850151600019600388901b60f8161c191681555b5050505050600190811b01905550565b6040815260006113a66040830185610f26565b82810360208401526113b88185610f26565b95945050505050565b634e487b7160e01b600052601160045260246000fd5b80820180821115610c8c57610c8c6113c1565b81810381811115610c8c57610c8c6113c1565b634e487b7160e01b600052603260045260246000fd5b60006020828403121561142557600080fd5b5051919050565b634e487b7160e01b600052602160045260246000fdfea26469706673582212200d92ef37397f5ec7e34fd1c37e021eb4c6a003618802760686ecc40237a9397d64736f6c63430008170033","linkReferences":{}},"methodIdentifiers":{"MIN_STAKE_AMOUNT()":"27ed7188","getNodeInfo(address)":"582115fb","getNodesInfo(uint256,uint256)":"2cc71ff9","getRegisteredNodesCount()":"fd74c776","isRegistered(address)":"c3c5a547","nodes(address)":"189a5a17","registerNode(address,string,string,bytes32,bytes)":"1cd8c9d1","registeredNodes(uint256)":"61ca89fa","stakeManager()":"7542ff95","validateStake(address)":"5e7b71dd"},"id":23}