{"abi":[{"type":"constructor","inputs":[{"name":"_stakeManager","type":"address","internalType":"address"},{"name":"_ipOrDomain","type":"string","internalType":"string"},{"name":"_apiIndexes","type":"string","internalType":"string"}],"stateMutability":"nonpayable"},{"type":"function","name":"MIN_STAKE_AMOUNT","inputs":[],"outputs":[{"name":"","type":"uint256","internalType":"uint256"}],"stateMutability":"view"},{"type":"function","name":"getNodeInfo","inputs":[{"name":"nodeAddress","type":"address","internalType":"address"}],"outputs":[{"name":"ipOrDomain","type":"string","internalType":"string"},{"name":"apiIndexes","type":"string","internalType":"string"},{"name":"registeredAt","type":"uint256","internalType":"uint256"}],"stateMutability":"view"},{"type":"function","name":"isRegistered","inputs":[{"name":"nodeAddress","type":"address","internalType":"address"}],"outputs":[{"name":"","type":"bool","internalType":"bool"}],"stateMutability":"view"},{"type":"function","name":"nodes","inputs":[{"name":"","type":"address","internalType":"address"}],"outputs":[{"name":"ipOrDomain","type":"string","internalType":"string"},{"name":"apiIndexes","type":"string","internalType":"string"},{"name":"registeredAt","type":"uint256","internalType":"uint256"}],"stateMutability":"view"},{"type":"function","name":"registerNode","inputs":[{"name":"nodeAddress","type":"address","internalType":"address"},{"name":"ipOrDomain","type":"string","internalType":"string"},{"name":"apiIndexes","type":"string","internalType":"string"},{"name":"challenge","type":"bytes32","internalType":"bytes32"},{"name":"signature","type":"bytes","internalType":"bytes"}],"outputs":[],"stateMutability":"nonpayable"},{"type":"function","name":"stakeManager","inputs":[],"outputs":[{"name":"","type":"address","internalType":"address"}],"stateMutability":"view"},{"type":"function","name":"validateStake","inputs":[{"name":"nodeAddress","type":"address","internalType":"address"}],"outputs":[{"name":"","type":"bool","internalType":"bool"}],"stateMutability":"view"},{"type":"event","name":"NodeRegistered","inputs":[{"name":"nodeAddress","type":"address","indexed":true,"internalType":"address"},{"name":"registrarAddress","type":"address","indexed":true,"internalType":"address"},{"name":"ipOrDomain","type":"string","indexed":false,"internalType":"string"},{"name":"apiIndexes","type":"string","indexed":false,"internalType":"string"}],"anonymous":false}],"bytecode":{"object":"0x60a06040523480156200001157600080fd5b50604051620014293803806200142983398101604081905262000034916200031b565b60016000556001600160a01b038316620000955760405162461bcd60e51b815260206004820152601d60248201527f496e76616c6964207374616b65206d616e61676572206164647265737300000060448201526064015b60405180910390fd5b6001600160a01b038316608052620000ad33620001aa565b620001065760405162461bcd60e51b815260206004820152602260248201527f4465706c6f79657220696e73756666696369656e74207374616b6520616d6f756044820152611b9d60f21b60648201526084016200008c565b6040805160608101825283815260208082018490524282840152336000908152600190915291909120815181906200013f908262000436565b506020820151600182019062000156908262000436565b5060409182015160029091015551339081907ffc8446bd09389300b8302e97cc1f4477498dba04dc4eb2e92f1a8f536564a9029062000199908690869062000530565b60405180910390a35050506200057c565b6080516000906001600160a01b0316620001c657506001919050565b608051604051630c2eb40360e01b81526001600160a01b03848116600483015260009190831690630c2eb40390602401602060405180830381865afa15801562000214573d6000803e3d6000fd5b505050506040513d601f19601f820116820180604052508101906200023a919062000562565b683635c9adc5dea000001115949350505050565b634e487b7160e01b600052604160045260246000fd5b60005b838110156200028157818101518382015260200162000267565b50506000910152565b600082601f8301126200029c57600080fd5b81516001600160401b0380821115620002b957620002b96200024e565b604051601f8301601f19908116603f01168101908282118183101715620002e457620002e46200024e565b81604052838152866020858801011115620002fe57600080fd5b6200031184602083016020890162000264565b9695505050505050565b6000806000606084860312156200033157600080fd5b83516001600160a01b03811681146200034957600080fd5b60208501519093506001600160401b03808211156200036757600080fd5b62000375878388016200028a565b935060408601519150808211156200038c57600080fd5b506200039b868287016200028a565b9150509250925092565b600181811c90821680620003ba57607f821691505b602082108103620003db57634e487b7160e01b600052602260045260246000fd5b50919050565b601f82111562000431576000816000526020600020601f850160051c810160208610156200040c5750805b601f850160051c820191505b818110156200042d5782815560010162000418565b5050505b505050565b81516001600160401b038111156200045257620004526200024e565b6200046a81620004638454620003a5565b84620003e1565b602080601f831160018114620004a25760008415620004895750858301515b600019600386901b1c1916600185901b1785556200042d565b600085815260208120601f198616915b82811015620004d357888601518255948401946001909101908401620004b2565b5085821015620004f25787850151600019600388901b60f8161c191681555b5050505050600190811b01905550565b600081518084526200051c81602086016020860162000264565b601f01601f19169290920160200192915050565b60408152600062000545604083018562000502565b828103602084015262000559818562000502565b95945050505050565b6000602082840312156200057557600080fd5b5051919050565b608051610e83620005a66000396000818161011b0152818161066501526106b80152610e836000f3fe608060405234801561001057600080fd5b506004361061007d5760003560e01c8063582115fb1161005b578063582115fb146100e05780635e7b71dd146100f35780637542ff9514610116578063c3c5a5471461015557600080fd5b8063189a5a17146100825780631cd8c9d1146100ad57806327ed7188146100c2575b600080fd5b610095610090366004610aa4565b610183565b6040516100a493929190610b0c565b60405180910390f35b6100c06100bb366004610bee565b6102b5565b005b6100d2683635c9adc5dea0000081565b6040519081526020016100a4565b6100956100ee366004610aa4565b6104e2565b610106610101366004610aa4565b610661565b60405190151581526020016100a4565b61013d7f000000000000000000000000000000000000000000000000000000000000000081565b6040516001600160a01b0390911681526020016100a4565b610106610163366004610aa4565b6001600160a01b0316600090815260016020526040902060020154151590565b60016020526000908152604090208054819061019e90610ca5565b80601f01602080910402602001604051908101604052809291908181526020018280546101ca90610ca5565b80156102175780601f106101ec57610100808354040283529160200191610217565b820191906000526020600020905b8154815290600101906020018083116101fa57829003601f168201915b50505050509080600101805461022c90610ca5565b80601f016020809104026020016040519081016040528092919081815260200182805461025890610ca5565b80156102a55780601f1061027a576101008083540402835291602001916102a5565b820191906000526020600020905b81548152906001019060200180831161028857829003601f168201915b5050505050908060020154905083565b6102bd61073c565b336000908152600160205260409020600201546103215760405162461bcd60e51b815260206004820152601860248201527f526567697374726172206e6f742072656769737465726564000000000000000060448201526064015b60405180910390fd5b6001600160a01b0385166000908152600160205260409020600201541561038a5760405162461bcd60e51b815260206004820152601760248201527f4e6f646520616c726561647920726567697374657265640000000000000000006044820152606401610318565b610395858383610795565b6103d55760405162461bcd60e51b8152602060048201526011602482015270496e76616c6964207369676e617475726560781b6044820152606401610318565b6103de85610661565b61042a5760405162461bcd60e51b815260206004820152601960248201527f496e73756666696369656e74207374616b6520616d6f756e74000000000000006044820152606401610318565b60408051606081018252858152602080820186905242828401526001600160a01b03881660009081526001909152919091208151819061046a9082610d30565b506020820151600182019061047f9082610d30565b506040918201516002909101555133906001600160a01b038716907ffc8446bd09389300b8302e97cc1f4477498dba04dc4eb2e92f1a8f536564a902906104c99088908890610df0565b60405180910390a36104db6001600055565b5050505050565b60608060008060016000866001600160a01b03166001600160a01b0316815260200190815260200160002060405180606001604052908160008201805461052890610ca5565b80601f016020809104026020016040519081016040528092919081815260200182805461055490610ca5565b80156105a15780601f10610576576101008083540402835291602001916105a1565b820191906000526020600020905b81548152906001019060200180831161058457829003601f168201915b505050505081526020016001820180546105ba90610ca5565b80601f01602080910402602001604051908101604052809291908181526020018280546105e690610ca5565b80156106335780601f1061060857610100808354040283529160200191610633565b820191906000526020600020905b81548152906001019060200180831161061657829003601f168201915b5050509183525050600291909101546020918201528151908201516040909201519097919650945092505050565b60007f00000000000000000000000000000000000000000000000000000000000000006001600160a01b031661069957506001919050565b604051630c2eb40360e01b81526001600160a01b0383811660048301527f000000000000000000000000000000000000000000000000000000000000000091600091831690630c2eb40390602401602060405180830381865afa158015610704573d6000803e3d6000fd5b505050506040513d601f19601f820116820180604052508101906107289190610e1e565b683635c9adc5dea000001115949350505050565b60026000540361078e5760405162461bcd60e51b815260206004820152601f60248201527f5265656e7472616e637947756172643a207265656e7472616e742063616c6c006044820152606401610318565b6002600055565b6040517f19457468657265756d205369676e6564204d6573736167653a0a3332000000006020820152603c81018390526000908190605c0160408051601f19818403018152919052805160209091012090506001600160a01b0385166107fb828561080e565b6001600160a01b03161495945050505050565b600080600061081d8585610832565b9150915061082a81610877565b509392505050565b60008082516041036108685760208301516040840151606085015160001a61085c878285856109c4565b94509450505050610870565b506000905060025b9250929050565b600081600481111561088b5761088b610e37565b036108935750565b60018160048111156108a7576108a7610e37565b036108f45760405162461bcd60e51b815260206004820152601860248201527f45434453413a20696e76616c6964207369676e617475726500000000000000006044820152606401610318565b600281600481111561090857610908610e37565b036109555760405162461bcd60e51b815260206004820152601f60248201527f45434453413a20696e76616c6964207369676e6174757265206c656e677468006044820152606401610318565b600381600481111561096957610969610e37565b036109c15760405162461bcd60e51b815260206004820152602260248201527f45434453413a20696e76616c6964207369676e6174757265202773272076616c604482015261756560f01b6064820152608401610318565b50565b6000807f7fffffffffffffffffffffffffffffff5d576e7357a4501ddfe92f46681b20a08311156109fb5750600090506003610a7f565b6040805160008082526020820180845289905260ff881692820192909252606081018690526080810185905260019060a0016020604051602081039080840390855afa158015610a4f573d6000803e3d6000fd5b5050604051601f1901519150506001600160a01b038116610a7857600060019250925050610a7f565b9150600090505b94509492505050565b80356001600160a01b0381168114610a9f57600080fd5b919050565b600060208284031215610ab657600080fd5b610abf82610a88565b9392505050565b6000815180845260005b81811015610aec57602081850181015186830182015201610ad0565b506000602082860101526020601f19601f83011685010191505092915050565b606081526000610b1f6060830186610ac6565b8281036020840152610b318186610ac6565b915050826040830152949350505050565b634e487b7160e01b600052604160045260246000fd5b600067ffffffffffffffff80841115610b7357610b73610b42565b604051601f8501601f19908116603f01168101908282118183101715610b9b57610b9b610b42565b81604052809350858152868686011115610bb457600080fd5b858560208301376000602087830101525050509392505050565b600082601f830112610bdf57600080fd5b610abf83833560208501610b58565b600080600080600060a08688031215610c0657600080fd5b610c0f86610a88565b9450602086013567ffffffffffffffff80821115610c2c57600080fd5b610c3889838a01610bce565b95506040880135915080821115610c4e57600080fd5b610c5a89838a01610bce565b9450606088013593506080880135915080821115610c7757600080fd5b508601601f81018813610c8957600080fd5b610c9888823560208401610b58565b9150509295509295909350565b600181811c90821680610cb957607f821691505b602082108103610cd957634e487b7160e01b600052602260045260246000fd5b50919050565b601f821115610d2b576000816000526020600020601f850160051c81016020861015610d085750805b601f850160051c820191505b81811015610d2757828155600101610d14565b5050505b505050565b815167ffffffffffffffff811115610d4a57610d4a610b42565b610d5e81610d588454610ca5565b84610cdf565b602080601f831160018114610d935760008415610d7b5750858301515b600019600386901b1c1916600185901b178555610d27565b600085815260208120601f198616915b82811015610dc257888601518255948401946001909101908401610da3565b5085821015610de05787850151600019600388901b60f8161c191681555b5050505050600190811b01905550565b604081526000610e036040830185610ac6565b8281036020840152610e158185610ac6565b95945050505050565b600060208284031215610e3057600080fd5b5051919050565b634e487b7160e01b600052602160045260246000fdfea264697066735822122008584ccfb1974fb3596aa76d64bd3f64a84c3e3fcddaf0cd639708799b7596cc64736f6c63430008170033","linkReferences":{}},"methodIdentifiers":{"MIN_STAKE_AMOUNT()":"27ed7188","getNodeInfo(address)":"582115fb","isRegistered(address)":"c3c5a547","nodes(address)":"189a5a17","registerNode(address,string,string,bytes32,bytes)":"1cd8c9d1","stakeManager()":"7542ff95","validateStake(address)":"5e7b71dd"},"id":39}