{"abi":[{"type":"constructor","inputs":[{"name":"_stakingToken","type":"address","internalType":"address"}],"stateMutability":"nonpayable"},{"type":"function","name":"LOCK_PERIOD","inputs":[],"outputs":[{"name":"","type":"uint256","internalType":"uint256"}],"stateMutability":"view"},{"type":"function","name":"emergencyUnstake","inputs":[{"name":"penaltyReceiver","type":"address","internalType":"address"},{"name":"penaltyPercent","type":"uint256","internalType":"uint256"}],"outputs":[],"stateMutability":"nonpayable"},{"type":"function","name":"getStakeAmount","inputs":[{"name":"user","type":"address","internalType":"address"}],"outputs":[{"name":"","type":"uint256","internalType":"uint256"}],"stateMutability":"view"},{"type":"function","name":"getStakeInfo","inputs":[{"name":"user","type":"address","internalType":"address"}],"outputs":[{"name":"amount","type":"uint256","internalType":"uint256"},{"name":"startTime","type":"uint256","internalType":"uint256"},{"name":"isActive","type":"bool","internalType":"bool"},{"name":"canUnstake","type":"bool","internalType":"bool"},{"name":"remainingLockTime","type":"uint256","internalType":"uint256"}],"stateMutability":"view"},{"type":"function","name":"owner","inputs":[],"outputs":[{"name":"","type":"address","internalType":"address"}],"stateMutability":"view"},{"type":"function","name":"pause","inputs":[],"outputs":[],"stateMutability":"nonpayable"},{"type":"function","name":"paused","inputs":[],"outputs":[{"name":"","type":"bool","internalType":"bool"}],"stateMutability":"view"},{"type":"function","name":"renounceOwnership","inputs":[],"outputs":[],"stateMutability":"nonpayable"},{"type":"function","name":"stake","inputs":[{"name":"amount","type":"uint256","internalType":"uint256"}],"outputs":[],"stateMutability":"nonpayable"},{"type":"function","name":"stakes","inputs":[{"name":"","type":"address","internalType":"address"}],"outputs":[{"name":"amount","type":"uint256","internalType":"uint256"},{"name":"startTime","type":"uint256","internalType":"uint256"},{"name":"isActive","type":"bool","internalType":"bool"}],"stateMutability":"view"},{"type":"function","name":"stakingToken","inputs":[],"outputs":[{"name":"","type":"address","internalType":"contract IERC20"}],"stateMutability":"view"},{"type":"function","name":"totalStaked","inputs":[],"outputs":[{"name":"","type":"uint256","internalType":"uint256"}],"stateMutability":"view"},{"type":"function","name":"transferOwnership","inputs":[{"name":"newOwner","type":"address","internalType":"address"}],"outputs":[],"stateMutability":"nonpayable"},{"type":"function","name":"unpause","inputs":[],"outputs":[],"stateMutability":"nonpayable"},{"type":"function","name":"unstake","inputs":[],"outputs":[],"stateMutability":"nonpayable"},{"type":"event","name":"EmergencyUnstaked","inputs":[{"name":"user","type":"address","indexed":true,"internalType":"address"},{"name":"amount","type":"uint256","indexed":false,"internalType":"uint256"},{"name":"time","type":"uint256","indexed":false,"internalType":"uint256"}],"anonymous":false},{"type":"event","name":"OwnershipTransferred","inputs":[{"name":"previousOwner","type":"address","indexed":true,"internalType":"address"},{"name":"newOwner","type":"address","indexed":true,"internalType":"address"}],"anonymous":false},{"type":"event","name":"Paused","inputs":[{"name":"account","type":"address","indexed":false,"internalType":"address"}],"anonymous":false},{"type":"event","name":"Staked","inputs":[{"name":"user","type":"address","indexed":true,"internalType":"address"},{"name":"amount","type":"uint256","indexed":false,"internalType":"uint256"},{"name":"startTime","type":"uint256","indexed":false,"internalType":"uint256"}],"anonymous":false},{"type":"event","name":"Unpaused","inputs":[{"name":"account","type":"address","indexed":false,"internalType":"address"}],"anonymous":false},{"type":"event","name":"Unstaked","inputs":[{"name":"user","type":"address","indexed":true,"internalType":"address"},{"name":"amount","type":"uint256","indexed":false,"internalType":"uint256"},{"name":"endTime","type":"uint256","indexed":false,"internalType":"uint256"}],"anonymous":false}],"bytecode":{"object":"0x60a060405234801561001057600080fd5b5060405161114938038061114983398101604081905261002f91610107565b600160005561003d336100b5565b6001805460ff60a01b191690556001600160a01b0381166100a45760405162461bcd60e51b815260206004820152601560248201527f496e76616c696420746f6b656e20616464726573730000000000000000000000604482015260640160405180910390fd5b6001600160a01b0316608052610137565b600180546001600160a01b038381166001600160a01b0319831681179093556040519116919082907f8be0079c531659141344cd1fd0a4f28419497f9722a3daafe3b4186f6b6457e090600090a35050565b60006020828403121561011957600080fd5b81516001600160a01b038116811461013057600080fd5b9392505050565b608051610fdb61016e600039600081816101c8015281816103cc0152818161056d015281816105a101526106f80152610fdb6000f3fe608060405234801561001057600080fd5b50600436106100f55760003560e01c8063715018a6116100975780638da5cb5b116100665780638da5cb5b14610213578063a694fc3a14610224578063c345315314610237578063f2fde38b1461027857600080fd5b8063715018a6146101bb57806372f702f3146101c3578063817b1cd2146102025780638456cb591461020b57600080fd5b80632def6620116100d35780632def6620146101795780633f4ba83a146101835780634268121e1461018b5780635c975abb1461019e57600080fd5b80630c2eb403146100fa57806316934fc4146101205780631820cabb1461016e575b600080fd5b61010d610108366004610e36565b61028b565b6040519081526020015b60405180910390f35b61015161012e366004610e36565b600260208190526000918252604090912080546001820154919092015460ff1683565b604080519384526020840192909252151590820152606001610117565b61010d6301e1338081565b6101816102d5565b005b61018161043b565b610181610199366004610e58565b61044b565b600154600160a01b900460ff166040519015158152602001610117565b610181610614565b6101ea7f000000000000000000000000000000000000000000000000000000000000000081565b6040516001600160a01b039091168152602001610117565b61010d60035481565b610181610626565b6001546001600160a01b03166101ea565b610181610232366004610e82565b610636565b61024a610245366004610e36565b6107c8565b604080519586526020860194909452911515928401929092529015156060830152608082015260a001610117565b610181610286366004610e36565b61085f565b6001600160a01b03811660009081526002602081905260408220015460ff166102b55760006102cf565b6001600160a01b0382166000908152600260205260409020545b92915050565b6102dd6108d5565b3360009081526002602081905260409091209081015460ff166103395760405162461bcd60e51b815260206004820152600f60248201526e4e6f20616374697665207374616b6560881b60448201526064015b60405180910390fd5b6301e13380816001015461034d9190610eb1565b4210156103945760405162461bcd60e51b8152602060048201526015602482015274131bd8dac81c195c9a5bd9081b9bdd08195b991959605a1b6044820152606401610330565b8054600080835560028301805460ff19169055600380548392906103b9908490610ec4565b909155506103f390506001600160a01b037f000000000000000000000000000000000000000000000000000000000000000016338361092e565b6040805182815242602082015233917f7fc4727e062e336010f2c282598ef5f14facb3de68cf8195c2f23e1454b2b74e910160405180910390a250506104396001600055565b565b610443610996565b6104396109f0565b6104536108d5565b61045b610a45565b6127108111156104ad5760405162461bcd60e51b815260206004820152601a60248201527f496e76616c69642070656e616c74792070657263656e746167650000000000006044820152606401610330565b3360009081526002602081905260409091209081015460ff166105045760405162461bcd60e51b815260206004820152600f60248201526e4e6f20616374697665207374616b6560881b6044820152606401610330565b805460006127106105158584610ed7565b61051f9190610eee565b9050600061052d8284610ec4565b600080865560028601805460ff19169055600380549293508592909190610555908490610ec4565b90915550508115610594576105946001600160a01b037f000000000000000000000000000000000000000000000000000000000000000016878461092e565b6105c86001600160a01b037f000000000000000000000000000000000000000000000000000000000000000016338361092e565b6040805184815242602082015233917f3b1e93c4be42a439cdb9e768b998c1f8181a04e2a02607a8dbc6c64b1ed56625910160405180910390a2505050506106106001600055565b5050565b61061c610996565b6104396000610a92565b61062e610996565b610439610ae4565b61063e6108d5565b610646610a45565b600081116106965760405162461bcd60e51b815260206004820152601d60248201527f416d6f756e74206d7573742062652067726561746572207468616e20300000006044820152606401610330565b336000908152600260208190526040909120015460ff16156106eb5760405162461bcd60e51b815260206004820152600e60248201526d105b1c9958591e481cdd185ad95960921b6044820152606401610330565b6107206001600160a01b037f000000000000000000000000000000000000000000000000000000000000000016333084610b27565b6040805160608101825282815242602080830191825260018385018181523360009081526002938490529586209451855592519084015590519101805460ff19169115159190911790556003805483929061077c908490610eb1565b90915550506040805182815242602082015233917f1449c6dd7851abc30abf37f57715f492010519147cc2652fbc38202c18a6ee90910160405180910390a26107c56001600055565b50565b6001600160a01b0381166000908152600260208181526040808420815160608101835281548152600182015493810184905293015460ff161515908301528291829182918291829061081f906301e1338090610eb1565b82516020840151604085015192935090914284111580610848576108434286610ec4565b61084b565b60005b939c929b5090995097509095509350505050565b610867610996565b6001600160a01b0381166108cc5760405162461bcd60e51b815260206004820152602660248201527f4f776e61626c653a206e6577206f776e657220697320746865207a65726f206160448201526564647265737360d01b6064820152608401610330565b6107c581610a92565b6002600054036109275760405162461bcd60e51b815260206004820152601f60248201527f5265656e7472616e637947756172643a207265656e7472616e742063616c6c006044820152606401610330565b6002600055565b6040516001600160a01b03831660248201526044810182905261099190849063a9059cbb60e01b906064015b60408051601f198184030181529190526020810180516001600160e01b03166001600160e01b031990931692909217909152610b65565b505050565b6001546001600160a01b031633146104395760405162461bcd60e51b815260206004820181905260248201527f4f776e61626c653a2063616c6c6572206973206e6f7420746865206f776e65726044820152606401610330565b6109f8610c3a565b6001805460ff60a01b191690557f5db9ee0a495bf2e6ff9c91a7834c1ba4fdd244a5e8aa4e537bd38aeae4b073aa335b6040516001600160a01b03909116815260200160405180910390a1565b600154600160a01b900460ff16156104395760405162461bcd60e51b815260206004820152601060248201526f14185d5cd8589b194e881c185d5cd95960821b6044820152606401610330565b600180546001600160a01b038381166001600160a01b0319831681179093556040519116919082907f8be0079c531659141344cd1fd0a4f28419497f9722a3daafe3b4186f6b6457e090600090a35050565b610aec610a45565b6001805460ff60a01b1916600160a01b1790557f62e78cea01bee320cd4e420270b5ea74000d11b0c9f74754ebdbfc544b05a258610a283390565b6040516001600160a01b0380851660248301528316604482015260648101829052610b5f9085906323b872dd60e01b9060840161095a565b50505050565b6000610bba826040518060400160405280602081526020017f5361666545524332303a206c6f772d6c6576656c2063616c6c206661696c6564815250856001600160a01b0316610c8a9092919063ffffffff16565b9050805160001480610bdb575080806020019051810190610bdb9190610f10565b6109915760405162461bcd60e51b815260206004820152602a60248201527f5361666545524332303a204552433230206f7065726174696f6e20646964206e6044820152691bdd081cdd58d8d9595960b21b6064820152608401610330565b600154600160a01b900460ff166104395760405162461bcd60e51b815260206004820152601460248201527314185d5cd8589b194e881b9bdd081c185d5cd95960621b6044820152606401610330565b6060610c998484600085610ca1565b949350505050565b606082471015610d025760405162461bcd60e51b815260206004820152602660248201527f416464726573733a20696e73756666696369656e742062616c616e636520666f6044820152651c8818d85b1b60d21b6064820152608401610330565b600080866001600160a01b03168587604051610d1e9190610f56565b60006040518083038185875af1925050503d8060008114610d5b576040519150601f19603f3d011682016040523d82523d6000602084013e610d60565b606091505b5091509150610d7187838387610d7c565b979650505050505050565b60608315610deb578251600003610de4576001600160a01b0385163b610de45760405162461bcd60e51b815260206004820152601d60248201527f416464726573733a2063616c6c20746f206e6f6e2d636f6e74726163740000006044820152606401610330565b5081610c99565b610c998383815115610e005781518083602001fd5b8060405162461bcd60e51b81526004016103309190610f72565b80356001600160a01b0381168114610e3157600080fd5b919050565b600060208284031215610e4857600080fd5b610e5182610e1a565b9392505050565b60008060408385031215610e6b57600080fd5b610e7483610e1a565b946020939093013593505050565b600060208284031215610e9457600080fd5b5035919050565b634e487b7160e01b600052601160045260246000fd5b808201808211156102cf576102cf610e9b565b818103818111156102cf576102cf610e9b565b80820281158282048414176102cf576102cf610e9b565b600082610f0b57634e487b7160e01b600052601260045260246000fd5b500490565b600060208284031215610f2257600080fd5b81518015158114610e5157600080fd5b60005b83811015610f4d578181015183820152602001610f35565b50506000910152565b60008251610f68818460208701610f32565b9190910192915050565b6020815260008251806020840152610f91816040850160208701610f32565b601f01601f1916919091016040019291505056fea2646970667358221220b4ff3c36dad57071e11816e9322a6e0ed9d92c1a1802c2cbfbb0bc05e33d091464736f6c63430008170033","linkReferences":{}},"methodIdentifiers":{"LOCK_PERIOD()":"1820cabb","emergencyUnstake(address,uint256)":"4268121e","getStakeAmount(address)":"0c2eb403","getStakeInfo(address)":"c3453153","owner()":"8da5cb5b","pause()":"8456cb59","paused()":"5c975abb","renounceOwnership()":"715018a6","stake(uint256)":"a694fc3a","stakes(address)":"16934fc4","stakingToken()":"72f702f3","totalStaked()":"817b1cd2","transferOwnership(address)":"f2fde38b","unpause()":"3f4ba83a","unstake()":"2def6620"},"id":40}