{"abi":[{"type":"constructor","inputs":[],"stateMutability":"nonpayable"},{"type":"function","name":"ENERGY_RECOVERY_RATE","inputs":[],"outputs":[{"name":"","type":"uint256","internalType":"uint256"}],"stateMutability":"view"},{"type":"function","name":"MAX_DAILY_ENERGY","inputs":[],"outputs":[{"name":"","type":"uint256","internalType":"uint256"}],"stateMutability":"view"},{"type":"function","name":"MAX_DAILY_POINTS","inputs":[],"outputs":[{"name":"","type":"uint256","internalType":"uint256"}],"stateMutability":"view"},{"type":"function","name":"VERSION","inputs":[],"outputs":[{"name":"","type":"string","internalType":"string"}],"stateMutability":"view"},{"type":"function","name":"addDailyPoints","inputs":[{"name":"nftContract","type":"address","internalType":"address"},{"name":"tokenId","type":"uint256","internalType":"uint256"},{"name":"amount","type":"uint256","internalType":"uint256"}],"outputs":[],"stateMutability":"nonpayable"},{"type":"function","name":"consumeEnergy","inputs":[{"name":"nftContract","type":"address","internalType":"address"},{"name":"tokenId","type":"uint256","internalType":"uint256"},{"name":"amount","type":"uint256","internalType":"uint256"}],"outputs":[],"stateMutability":"nonpayable"},{"type":"function","name":"createHero","inputs":[{"name":"nftContract","type":"address","internalType":"address"},{"name":"tokenId","type":"uint256","internalType":"uint256"},{"name":"name","type":"string","internalType":"string"},{"name":"race","type":"uint8","internalType":"enum HeroV5.Race"},{"name":"gender","type":"uint8","internalType":"enum HeroV5.Gender"}],"outputs":[],"stateMutability":"nonpayable"},{"type":"function","name":"getHeroEquipment","inputs":[{"name":"nftContract","type":"address","internalType":"address"},{"name":"tokenId","type":"uint256","internalType":"uint256"}],"outputs":[{"name":"","type":"tuple[]","internalType":"struct HeroV5.Equipment[]","components":[{"name":"contractAddress","type":"address","internalType":"address"},{"name":"tokenId","type":"uint256","internalType":"uint256"},{"name":"slot","type":"uint8","internalType":"uint8"}]}],"stateMutability":"view"},{"type":"function","name":"getHeroInfo","inputs":[{"name":"nftContract","type":"address","internalType":"address"},{"name":"tokenId","type":"uint256","internalType":"uint256"}],"outputs":[{"name":"name","type":"string","internalType":"string"},{"name":"race","type":"uint8","internalType":"enum HeroV5.Race"},{"name":"gender","type":"uint8","internalType":"enum HeroV5.Gender"},{"name":"level","type":"uint256","internalType":"uint256"},{"name":"energy","type":"uint256","internalType":"uint256"},{"name":"dailyPoints","type":"uint256","internalType":"uint256"}],"stateMutability":"view"},{"type":"function","name":"getHeroSkills","inputs":[{"name":"nftContract","type":"address","internalType":"address"},{"name":"tokenId","type":"uint256","internalType":"uint256"},{"name":"season","type":"uint8","internalType":"enum HeroV5.Season"}],"outputs":[{"name":"","type":"uint8[5]","internalType":"uint8[5]"}],"stateMutability":"view"},{"type":"function","name":"getRegisteredNFTs","inputs":[],"outputs":[{"name":"","type":"address[]","internalType":"address[]"}],"stateMutability":"view"},{"type":"function","name":"heroCount","inputs":[{"name":"","type":"address","internalType":"address"}],"outputs":[{"name":"","type":"uint256","internalType":"uint256"}],"stateMutability":"view"},{"type":"function","name":"isRegistered","inputs":[{"name":"","type":"address","internalType":"address"}],"outputs":[{"name":"","type":"bool","internalType":"bool"}],"stateMutability":"view"},{"type":"function","name":"officialNFT","inputs":[],"outputs":[{"name":"","type":"address","internalType":"address"}],"stateMutability":"view"},{"type":"function","name":"owner","inputs":[],"outputs":[{"name":"","type":"address","internalType":"address"}],"stateMutability":"view"},{"type":"function","name":"registerNFT","inputs":[{"name":"nftContract","type":"address","internalType":"address"},{"name":"isOfficial","type":"bool","internalType":"bool"}],"outputs":[],"stateMutability":"nonpayable"},{"type":"function","name":"renounceOwnership","inputs":[],"outputs":[],"stateMutability":"nonpayable"},{"type":"function","name":"totalHeroCount","inputs":[],"outputs":[{"name":"","type":"uint256","internalType":"uint256"}],"stateMutability":"view"},{"type":"function","name":"transferOwnership","inputs":[{"name":"newOwner","type":"address","internalType":"address"}],"outputs":[],"stateMutability":"nonpayable"},{"type":"function","name":"updateEquipment","inputs":[{"name":"nftContract","type":"address","internalType":"address"},{"name":"tokenId","type":"uint256","internalType":"uint256"},{"name":"slot","type":"uint8","internalType":"uint8"},{"name":"equipContract","type":"address","internalType":"address"},{"name":"equipTokenId","type":"uint256","internalType":"uint256"}],"outputs":[],"stateMutability":"nonpayable"},{"type":"function","name":"updateSkill","inputs":[{"name":"nftContract","type":"address","internalType":"address"},{"name":"tokenId","type":"uint256","internalType":"uint256"},{"name":"season","type":"uint8","internalType":"enum HeroV5.Season"},{"name":"skillIndex","type":"uint8","internalType":"uint8"},{"name":"level","type":"uint8","internalType":"uint8"}],"outputs":[],"stateMutability":"nonpayable"},{"type":"event","name":"HeroCreated","inputs":[{"name":"nftContract","type":"address","indexed":true,"internalType":"address"},{"name":"tokenId","type":"uint256","indexed":true,"internalType":"uint256"},{"name":"name","type":"string","indexed":false,"internalType":"string"}],"anonymous":false},{"type":"event","name":"HeroEnergyUpdated","inputs":[{"name":"nftContract","type":"address","indexed":true,"internalType":"address"},{"name":"tokenId","type":"uint256","indexed":true,"internalType":"uint256"},{"name":"newEnergy","type":"uint256","indexed":false,"internalType":"uint256"}],"anonymous":false},{"type":"event","name":"HeroEquipmentUpdated","inputs":[{"name":"nftContract","type":"address","indexed":true,"internalType":"address"},{"name":"tokenId","type":"uint256","indexed":true,"internalType":"uint256"},{"name":"slot","type":"uint8","indexed":false,"internalType":"uint8"},{"name":"equipContract","type":"address","indexed":false,"internalType":"address"},{"name":"equipTokenId","type":"uint256","indexed":false,"internalType":"uint256"}],"anonymous":false},{"type":"event","name":"HeroPointsUpdated","inputs":[{"name":"nftContract","type":"address","indexed":true,"internalType":"address"},{"name":"tokenId","type":"uint256","indexed":true,"internalType":"uint256"},{"name":"newPoints","type":"uint256","indexed":false,"internalType":"uint256"}],"anonymous":false},{"type":"event","name":"HeroSkillUpdated","inputs":[{"name":"nftContract","type":"address","indexed":true,"internalType":"address"},{"name":"tokenId","type":"uint256","indexed":true,"internalType":"uint256"},{"name":"season","type":"uint8","indexed":false,"internalType":"uint8"},{"name":"skillIndex","type":"uint8","indexed":false,"internalType":"uint8"},{"name":"level","type":"uint8","indexed":false,"internalType":"uint8"}],"anonymous":false},{"type":"event","name":"NFTRegistered","inputs":[{"name":"nftContract","type":"address","indexed":true,"internalType":"address"},{"name":"isOfficial","type":"bool","indexed":false,"internalType":"bool"}],"anonymous":false},{"type":"event","name":"NFTUnregistered","inputs":[{"name":"nftContract","type":"address","indexed":true,"internalType":"address"}],"anonymous":false},{"type":"event","name":"OwnershipTransferred","inputs":[{"name":"previousOwner","type":"address","indexed":true,"internalType":"address"},{"name":"newOwner","type":"address","indexed":true,"internalType":"address"}],"anonymous":false}],"bytecode":{"object":"0x6080806040523461005b5760008054336001600160a01b0319821681178355916001600160a01b03909116907f8be0079c531659141344cd1fd0a4f28419497f9722a3daafe3b4186f6b6457e09080a361171990816100618239f35b600080fdfe60806040908082526004918236101561001757600080fd5b600091823560e01c9081630c0703661461141f5750806317e6c3e214611401578063434f52da146110eb5780635ff478c8146110c3578063715018a6146110695780638da5cb5b146110425780638e22719214610f1757806393b5a41114610e525780639af69ebf14610e35578063ae9a18e314610c9d578063bcd418b014610b2d578063c05f227114610af7578063c0d0f1ad14610adb578063c3c5a54714610a9e578063d575ba67146109c8578063e6606ef7146107d4578063f0bcf8711461069f578063f2fde38b146105dc578063f5a1f0f8146104a7578063fd52db471461017d5763ffa1ad741461010c57600080fd5b346101795781600319360112610179578051918183019083821067ffffffffffffffff83111761016657506101629350815260058252640352e302e360dc1b6020830152519182916020835260208301906114ef565b0390f35b634e487b7160e01b815260418552602490fd5b5080fd5b50823461049f5760a036600319011261049f5761019861143a565b906024928335926044359160ff8084168094036104a3576064356001600160a01b03818116928a9284900361049f5781608435966101d461152f565b16978884526002906101ef8388602097858952205416611587565b818911610464578c939b8a8552600686528785208c8652865260058886209561022261021b88546115c8565b1515611627565b9501945b855480821015610451578b868661023d858b611697565b5001541614610255575061025090611602565b610226565b9060009e92939495969798999a9b9c9d9e199182810190811161043d5761027f610287918a611697565b509189611697565b61042a578681838a93036103ed575b50505050865480156103da57016102ad8188611697565b6103c8578f908082889255826001820155015586555b87610303575b8d8d8d7ff8226d06b73965b2435d2d98a63580bb980bf6b6d923486f55f63b28f97d7c3160608f8f8f8f8f8251948552840152820152a380f35b885161030e81611455565b888152878101928b84528a8201978d8952805490600160401b8210156103b5579061033e91600182018155611697565b95909561039f5750505183546001600160a01b031916911617825551600182015592519201805460ff191692909116919091179055817ff8226d06b73965b2435d2d98a63580bb980bf6b6d923486f55f63b28f97d7c3160608b80806102c9565b9093508f9250829150634e487b7160e01b825252fd5b50508f604186634e487b7160e01b835252fd5b50634e487b7160e01b8f528e8452828ffd5b50634e487b7160e01b8f5260318452828ffd5b8190868554166bffffffffffffffffffffffff60a01b82541617815560018086015490820155019201541660ff198254161790558f868682610296565b5050634e487b7160e01b8f528e8452828ffd5b5050634e487b7160e01b8f5260118452828ffd5b5050909192939495969798999a9b6102c3565b865162461bcd60e51b81529081018590526016818d015275125b9d985b1a5908195c5d5a5c1b595b9d081cdb1bdd60521b6044820152606490fd5b8280fd5b8780fd5b5090346105d957816003193601126105d9576001600160a01b0392836104cb61143a565b1682526020600681528383206024358452815260058484206104f061021b82546115c8565b019283549267ffffffffffffffff84116105c657509190845191610519828260051b01846114a3565b8083528183018095855282852085915b838310610585575050505084519481860192828752518093528086019493905b8382106105565786860387f35b8451805189168752808401518785015281015160ff168682015260609095019493820193600190910190610549565b6003856001928b999798995161059a81611455565b8d8654168152848601548382015260ff6002870154168d82015281520192019201919095949395610529565b634e487b7160e01b825260419052602490fd5b80fd5b50823461049f57602036600319011261049f576105f761143a565b9061060061152f565b6001600160a01b0391821692831561064d57505082546001600160a01b0319811683178455167f8be0079c531659141344cd1fd0a4f28419497f9722a3daafe3b4186f6b6457e08380a380f35b906020608492519162461bcd60e51b8352820152602660248201527f4f776e61626c653a206e6577206f776e657220697320746865207a65726f206160448201526564647265737360d01b6064820152fd5b50823461049f576106af366114c5565b92916106bc94919461152f565b6001600160a01b03168086526002602052818620549093906106e09060ff16611587565b838652600660205281862085875260205281862061070161021b82546115c8565b60068101805462015180908181018091116107c1579060039392914210156107a6575b5050019283549082821061076d5750916107627f5d0547d6f8851c160cfac5a11d234a39d7204466412cee564954fe37036003b694926020946116c9565b80925551908152a380f35b606490602085519162461bcd60e51b83528201526013602482015272496e73756666696369656e7420656e6572677960681b6044820152fd5b6107b8906064858501554206426116c9565b90558880610724565b634e487b7160e01b8a526011875260248afd5b5082903461049f578060031936011261049f576107ef61143a565b90602492833593841515938486036109c45761080961152f565b6001600160a01b0390811695861561098c57868852600260205260ff8589205416610951576108f0575b508486526002602052828620805460ff1916600117905560035491600160401b8310156108df5760018301806003558310156108ce575050600385527fc2575a0e9e593c00f959f8c92f12db2869c3395a3b0502d05e2516446f71f85b0180546001600160a01b03191684179055519081527ff92741b49f85c52ec622bb085499e58d4ed79bed0fe6b9143ae0ae7c54dcabf290602090a280f35b634e487b7160e01b87526032905285fd5b634e487b7160e01b87526041905285fd5b60015490811661090f576001600160a01b031916851760015586610833565b506018906020606494519362461bcd60e51b85528401528201527f4f6666696369616c204e465420616c72656164792073657400000000000000006044820152fd5b845162461bcd60e51b81526020818601526016818501527513919508185b1c9958591e481c9959da5cdd195c995960521b6044820152606490fd5b845162461bcd60e51b815260208186015260138185015272496e76616c6964204e4654206164647265737360681b6044820152606490fd5b8680fd5b50823461049f57606036600319011261049f576109e361143a565b60443582811015610a9a57610a339160a085516109ff81611487565b36903760018060a01b031685526020926006845284862060243587528452848620610a2d61021b82546115c8565b01611669565b825190549260ff84818096168452818160081c1685850152818160101c1683850152818160181c166060850152841c166080830152610a7182611487565b519390845b60058310610a835760a086f35b838060019287855116815201920192019190610a76565b8480fd5b50346101795760203660031901126101795760209160ff9082906001600160a01b03610ac861143a565b1681526002855220541690519015158152f35b5034610179578160031936011261017957602090516103e88152f35b50823461049f57602036600319011261049f5760209282916001600160a01b03610b1f61143a565b168252845220549051908152f35b5090346105d957816003193601126105d9576001600160a01b03610b4f61143a565b168152602090600682528281206024358252825282812092835490610b7661021b836115c8565b600192838601549160ff8084169360081c169160028801549360038901549560078a01549784519a8b918591610bab856115c8565b948585528d8382169182600014610c7b575050600114610c3e575b5050610bd49250038a6114a3565b610be883519960c08b5260c08b01906114ef565b976005821015610c2b578901526002831015610c1857508680985001526060850152608084015260a08301520390f35b634e487b7160e01b815260218952602490fd5b634e487b7160e01b835260218b52602483fd5b8c925086528186209086915b858310610c62575050610bd493508201013880610bc6565b819484848396959654920101520191018c928c92610c4a565b9250935050610bd494915060ff191682840152151560051b8201013880610bc6565b50823461049f5760a036600319011261049f57610cb861143a565b91602435926044359183831015610e31576064359360ff8516908186036104a3576084359360ff8516809503610e2d57610cf061152f565b60018060a01b03169586895260209160028352610d1260ff868c205416611587565b6005841015610df45760648611610dbb57878a5260068352848a20898b528352610d478782878d20610a2d61021b82546115c8565b906005831015610da85750600582901c01805460ff60039390931b60f81683811b199091169087901b1790558351951685528401528201527f2353c4a88dfc5c98e27641be2139000d98ef78cf81761a2980b480cf91f8849290606090a380f35b634e487b7160e01b8b526032905260248afd5b845162461bcd60e51b81529081018390526013602482015272125b9d985b1a59081cdada5b1b081b195d995b606a1b6044820152606490fd5b845162461bcd60e51b81529081018390526013602482015272092dcecc2d8d2c840e6d6d2d8d840d2dcc8caf606b1b6044820152606490fd5b8880fd5b8580fd5b503461017957816003193601126101795760209051620151808152f35b5090346105d957806003193601126105d9579080519182906003549182855260208095018093600384527fc2575a0e9e593c00f959f8c92f12db2869c3395a3b0502d05e2516446f71f85b90845b818110610efa5750505081610eb69103826114a3565b83519485948186019282875251809352850193925b828110610eda57505050500390f35b83516001600160a01b031685528695509381019392810192600101610ecb565b82546001600160a01b031684529288019260019283019201610ea0565b50823461049f57610f27366114c5565b9291610f3494919461152f565b6001600160a01b0316808652600260205281862054909390610f589060ff16611587565b8386526006602052818620858752602052818620610f7961021b82546115c8565b60088101805462015180908181018091116107c157906007939291421015611028575b505001928354906103e8610fb084846116d6565b11610fe55750916107627fe459daf79d9e61791e256872c8b71e9052ff15fe492d077074c1173dddb111d894926020946116d6565b606490602085519162461bcd60e51b8352820152601b60248201527f4461696c7920706f696e7473206c696d697420657863656564656400000000006044820152fd5b611039908a858501554206426116c9565b90558880610f9c565b5034610179578160031936011261017957905490516001600160a01b039091168152602090f35b82346105d957806003193601126105d95761108261152f565b80546001600160a01b03198116825581906001600160a01b03167f8be0079c531659141344cd1fd0a4f28419497f9722a3daafe3b4186f6b6457e08280a380f35b503461017957816003193601126101795760015490516001600160a01b039091168152602090f35b5091346101795760a03660031901126101795761110661143a565b906024918235926044359567ffffffffffffffff938488116109c457366023890112156109c45787810135928584116113f057825194602094601f199a611154878d601f85011601896114a3565b818852368483830101116113e857818b9285899301838b01378801015260643560058110156113ec576084359160028310156113e8576001600160a01b0316808b5260028752858b20549098906111ad9060ff16611587565b888b5260068752858b208a8c5287526111c8868c20546115c8565b6113b057888b5260068752858b208a8c528752858b2093885191821161139f57506111f384546115c8565b601f811161135c575b50869b601f82116001146112d4575090816112c396959493928c9d7f7d647992a58314ebc9a217d3404d368856d2f2029bb4d567d776b5644b76ad649b9c9d916112c9575b508160011b916000199060031b1c19161783555b600183019160ff61ff0084549260081b1692169061ffff191617179055600160028201556064600382015542600682015589600782015560084291015586895283528088206112a48154611602565b90556112b1600554611602565b600555519282849384528301906114ef565b0390a380f35b905089015138611241565b8116848c52878c20908c5b8181106113455750916001917f7d647992a58314ebc9a217d3404d368856d2f2029bb4d567d776b5644b76ad649b9c9d9e826112c39a99989796951061132c575b5050811b018355611255565b8b015160001960f88460031b161c191690553880611320565b8a8f015183559d89019d60019092019189016112df565b848c52878c20601f830160051c810191898410611395575b601f0160051c01905b81811061138a57506111fc565b8c815560010161137d565b9091508190611374565b634e487b7160e01b8c52604186528bfd5b855162461bcd60e51b8152808601889052601381860152724865726f20616c72656164792065786973747360681b6044820152606490fd5b8a80fd5b8980fd5b634e487b7160e01b88526041825287fd5b50346101795781600319360112610179576020906005549051908152f35b83903461017957816003193601126101795780606460209252f35b600435906001600160a01b038216820361145057565b600080fd5b6060810190811067ffffffffffffffff82111761147157604052565b634e487b7160e01b600052604160045260246000fd5b60a0810190811067ffffffffffffffff82111761147157604052565b90601f8019910116810190811067ffffffffffffffff82111761147157604052565b6060906003190112611450576004356001600160a01b038116810361145057906024359060443590565b919082519283825260005b84811061151b575050826000602080949584010152601f8019910116010190565b6020818301810151848301820152016114fa565b6000546001600160a01b0316330361154357565b606460405162461bcd60e51b815260206004820152602060248201527f4f776e61626c653a2063616c6c6572206973206e6f7420746865206f776e65726044820152fd5b1561158e57565b60405162461bcd60e51b8152602060048201526012602482015271139195081b9bdd081c9959da5cdd195c995960721b6044820152606490fd5b90600182811c921680156115f8575b60208310146115e257565b634e487b7160e01b600052602260045260246000fd5b91607f16916115d7565b60001981146116115760010190565b634e487b7160e01b600052601160045260246000fd5b1561162e57565b60405162461bcd60e51b815260206004820152601360248201527212195c9bc8191bd95cc81b9bdd08195e1a5cdd606a1b6044820152606490fd5b90600481101561168157600052602052604060002090565b634e487b7160e01b600052602160045260246000fd5b80548210156116b3576000526003602060002091020190600090565b634e487b7160e01b600052603260045260246000fd5b9190820391821161161157565b919082018092116116115756fea26469706673582212203cff33f3cbcfb2690adc32d7ed2fe2fe9f55b7f988cf4967895880f0904c587664736f6c63430008140033","linkReferences":{}},"methodIdentifiers":{"ENERGY_RECOVERY_RATE()":"9af69ebf","MAX_DAILY_ENERGY()":"0c070366","MAX_DAILY_POINTS()":"c0d0f1ad","VERSION()":"ffa1ad74","addDailyPoints(address,uint256,uint256)":"8e227192","consumeEnergy(address,uint256,uint256)":"f0bcf871","createHero(address,uint256,string,uint8,uint8)":"434f52da","getHeroEquipment(address,uint256)":"f5a1f0f8","getHeroInfo(address,uint256)":"bcd418b0","getHeroSkills(address,uint256,uint8)":"d575ba67","getRegisteredNFTs()":"93b5a411","heroCount(address)":"c05f2271","isRegistered(address)":"c3c5a547","officialNFT()":"5ff478c8","owner()":"8da5cb5b","registerNFT(address,bool)":"e6606ef7","renounceOwnership()":"715018a6","totalHeroCount()":"17e6c3e2","transferOwnership(address)":"f2fde38b","updateEquipment(address,uint256,uint8,address,uint256)":"fd52db47","updateSkill(address,uint256,uint8,uint8,uint8)":"ae9a18e3"},"id":41}