{"abi":[{"type":"constructor","inputs":[],"stateMutability":"nonpayable"},{"type":"function","name":"VERSION","inputs":[],"outputs":[{"name":"","type":"string","internalType":"string"}],"stateMutability":"view"},{"type":"function","name":"getClass","inputs":[{"name":"classId","type":"uint8","internalType":"uint8"}],"outputs":[{"name":"","type":"tuple","internalType":"struct IHeroMetadata.ClassAttributes","components":[{"name":"baseAttributes","type":"uint16[4]","internalType":"uint16[4]"},{"name":"growthRates","type":"uint16[4]","internalType":"uint16[4]"},{"name":"description","type":"string","internalType":"string"},{"name":"isActive","type":"bool","internalType":"bool"}]}],"stateMutability":"view"},{"type":"function","name":"getRace","inputs":[{"name":"raceId","type":"uint8","internalType":"uint8"}],"outputs":[{"name":"","type":"tuple","internalType":"struct IHeroMetadata.RaceAttributes","components":[{"name":"baseAttributes","type":"uint16[4]","internalType":"uint16[4]"},{"name":"description","type":"string","internalType":"string"},{"name":"isActive","type":"bool","internalType":"bool"}]}],"stateMutability":"view"},{"type":"function","name":"getSkill","inputs":[{"name":"seasonId","type":"uint8","internalType":"uint8"},{"name":"skillId","type":"uint8","internalType":"uint8"},{"name":"level","type":"uint8","internalType":"uint8"}],"outputs":[{"name":"","type":"tuple","internalType":"struct IHeroMetadata.Skill","components":[{"name":"name","type":"string","internalType":"string"},{"name":"level","type":"uint8","internalType":"uint8"},{"name":"points","type":"uint16","internalType":"uint16"},{"name":"season","type":"uint8","internalType":"enum IHeroMetadata.Season"},{"name":"isActive","type":"bool","internalType":"bool"}]}],"stateMutability":"view"},{"type":"function","name":"owner","inputs":[],"outputs":[{"name":"","type":"address","internalType":"address"}],"stateMutability":"view"},{"type":"function","name":"renounceOwnership","inputs":[],"outputs":[],"stateMutability":"nonpayable"},{"type":"function","name":"setClass","inputs":[{"name":"classId","type":"uint8","internalType":"uint8"},{"name":"baseAttributes","type":"uint16[4]","internalType":"uint16[4]"},{"name":"growthRates","type":"uint16[4]","internalType":"uint16[4]"},{"name":"description","type":"string","internalType":"string"},{"name":"isActive","type":"bool","internalType":"bool"}],"outputs":[],"stateMutability":"nonpayable"},{"type":"function","name":"setRace","inputs":[{"name":"raceId","type":"uint8","internalType":"uint8"},{"name":"baseAttributes","type":"uint16[4]","internalType":"uint16[4]"},{"name":"description","type":"string","internalType":"string"},{"name":"isActive","type":"bool","internalType":"bool"}],"outputs":[],"stateMutability":"nonpayable"},{"type":"function","name":"setSkill","inputs":[{"name":"seasonId","type":"uint8","internalType":"uint8"},{"name":"skillId","type":"uint8","internalType":"uint8"},{"name":"level","type":"uint8","internalType":"uint8"},{"name":"name","type":"string","internalType":"string"},{"name":"points","type":"uint16","internalType":"uint16"},{"name":"isActive","type":"bool","internalType":"bool"}],"outputs":[],"stateMutability":"nonpayable"},{"type":"function","name":"transferOwnership","inputs":[{"name":"newOwner","type":"address","internalType":"address"}],"outputs":[],"stateMutability":"nonpayable"},{"type":"event","name":"ClassUpdated","inputs":[{"name":"classId","type":"uint8","indexed":true,"internalType":"uint8"},{"name":"baseAttributes","type":"uint16[4]","indexed":false,"internalType":"uint16[4]"},{"name":"growthRates","type":"uint16[4]","indexed":false,"internalType":"uint16[4]"},{"name":"description","type":"string","indexed":false,"internalType":"string"}],"anonymous":false},{"type":"event","name":"OwnershipTransferred","inputs":[{"name":"previousOwner","type":"address","indexed":true,"internalType":"address"},{"name":"newOwner","type":"address","indexed":true,"internalType":"address"}],"anonymous":false},{"type":"event","name":"RaceUpdated","inputs":[{"name":"raceId","type":"uint8","indexed":true,"internalType":"uint8"},{"name":"baseAttributes","type":"uint16[4]","indexed":false,"internalType":"uint16[4]"},{"name":"description","type":"string","indexed":false,"internalType":"string"}],"anonymous":false},{"type":"event","name":"SkillUpdated","inputs":[{"name":"seasonId","type":"uint8","indexed":true,"internalType":"uint8"},{"name":"skillId","type":"uint8","indexed":true,"internalType":"uint8"},{"name":"level","type":"uint8","indexed":false,"internalType":"uint8"},{"name":"name","type":"string","indexed":false,"internalType":"string"},{"name":"points","type":"uint16","indexed":false,"internalType":"uint16"}],"anonymous":false}],"bytecode":{"object":"0x6080806040523461005b5760008054336001600160a01b0319821681178355916001600160a01b03909116907f8be0079c531659141344cd1fd0a4f28419497f9722a3daafe3b4186f6b6457e09080a36114c190816100618239f35b600080fdfe6080604052600436101561001257600080fd5b60003560e01c80631439203614610be95780633fd6a5c2146109535780635e2bb68d146108815780636503e54b1461071a578063715018a6146106c1578063732ba8bb146103055780638bb5ad96146101f65780638da5cb5b146101cd578063f2fde38b146101025763ffa1ad741461008a57600080fd5b346100fd5760003660031901126100fd57604051604081019080821067ffffffffffffffff8311176100e7576100e3916040526005815264312e302e3160d81b6020820152604051918291602083526020830190611048565b0390f35b634e487b7160e01b600052604160045260246000fd5b600080fd5b346100fd5760203660031901126100fd576004356001600160a01b03818116918290036100fd576101316110fe565b811561017957600054826bffffffffffffffffffffffff60a01b821617600055167f8be0079c531659141344cd1fd0a4f28419497f9722a3daafe3b4186f6b6457e0600080a3005b60405162461bcd60e51b815260206004820152602660248201527f4f776e61626c653a206e6577206f776e657220697320746865207a65726f206160448201526564647265737360d01b6064820152608490fd5b346100fd5760003660031901126100fd576000546040516001600160a01b039091168152602090f35b346100fd576020806003193601126100fd5760ff610212610faf565b60006060604051610222816110c0565b60405161022e816110c0565b60803682378152604051610241816110c0565b60803682378682015281604082015201521661025f6005821061144f565b6000526003815260406000209060405191610279836110c0565b61028281611418565b835261029060018201611418565b908284019182526102df60ff60036102aa6002850161121b565b9360408801948552015416926060860193151584526102d46040519686889788528701905161101c565b5160a085019061101c565b516102f96101409182610120860152610160850190611048565b91511515908301520390f35b346100fd576101603660031901126100fd5761031f610faf565b3660a4116100fd576101243681116100fd57803567ffffffffffffffff81116100fd57610350903690600401610fdf565b610144358015158091036100fd576103666110fe565b610375600560ff87161061144f565b60005b6004811061064357506040519361038e856110c0565b610397366113a4565b8552604051906103a6826110c0565b60a4825b82821061062b5750505060208501526103c4368385611156565b6040850152606084015260ff841660005260036020526040600020835160009060005b600481106105fa575050815560208401519360009460005b600481106105c95750506001948583015560028201604082015180519067ffffffffffffffff82116100e75761043583546111a9565b601f811161058c575b50602090601f831160011461051a57928260609361048c97969360039660009261050f575b505060001982871b1c1916908a1b1790555b0151151591019060ff801983541691151516179055565b60405192610499846113e4565b60a46000608086015b600482106104ef57877f6213c66cece181c210bf5d7d50b874dab6814854ff72738af1ad148c593c97ab88806104ea8a8a60ff610120978861010087015216968401916111fa565b0390a2005b602080859261ffff6105008761100d565b168152019301910190916104a2565b015190508c80610463565b889291601f198316918560005260206000209260005b81811061057457509260609592859261048c9a9996600399961061055c575b505050811b019055610475565b015160001983891b60f8161c191690558c808061054f565b8284015185558c969094019360209384019301610530565b6105b990846000526020600020601f850160051c810191602086106105bf575b601f0160051c01906111e3565b8961043e565b90915081906105ac565b909560206105f160019261ffff8a51169085851b60031b9161ffff809116831b921b19161790565b970191016103ff565b9091602061062260019261ffff8651169085851b60031b9161ffff809116831b921b19161790565b930191016103e7565b602080916106388461100d565b8152019101906103aa565b61ffff6106638161065b61065685611321565b611349565b161515611358565b6106728260051b60a401611349565b161561068657610681906112fc565b610378565b60405162461bcd60e51b8152602060048201526013602482015272496e76616c69642067726f777468207261746560681b6044820152606490fd5b346100fd5760003660031901126100fd576106da6110fe565b600080546001600160a01b0319811682556001600160a01b03167f8be0079c531659141344cd1fd0a4f28419497f9722a3daafe3b4186f6b6457e08280a3005b346100fd5760603660031901126100fd57610733610faf565b61073b610fbf565b90610744610fcf565b6107b96040519361075485611088565b6060855260006080602096828882015282604082015282606082015201526107ab604051938492878401968791909260039360ff60f81b9283809260f81b16855260f81b16600184015260f81b1660028201520190565b03601f1981018352826110dc565b519020600052600181526040600020906001604051926107d884611088565b6107e18161121b565b84520154908083019060ff831682526040840161ffff90818560081c16815260ff61083e6060880194610819838960181c168761119d565b8260808a0198821c161515885260a060405199828b5251918a015260c0890190611048565b9451166040870152511660608501525191600483101561086b578392608084015251151560a08301520390f35b634e487b7160e01b600052602160045260246000fd5b346100fd576020806003193601126100fd5760ff61089d610faf565b6000604080516108ac816110a4565b81516108b7816110c0565b608036823781526060868201520152166108d3600582106112c1565b60005260028152604060002090604051916108ed836110a4565b6108f681611418565b835261094660ff600261090b6001850161121b565b93858701948552015416916040850192151583526109346040519585879687528601905161101c565b5160c060a085015260e0840190611048565b9051151560c08301520390f35b346100fd5760e03660031901126100fd5761096c610faf565b3660a4116100fd5767ffffffffffffffff9060a4358281116100fd57610996903690600401610fdf565b60c435928315158094036100fd5760ff906109af6110fe565b16926109bd600585106112c1565b60005b60048110610bc95750604051946109d6866110a4565b6109df366113a4565b86526109ec368486611156565b9060208088019283526040880193845286600052600281526040600020975160009060005b8360048210610ba3575050508855600190818901935180519384116100e757610a3a85546111a9565b601f8111610b73575b5081601f8511600114610adf5750928080610ab197947f42e349952e50b50f98db671f404474dc01def61592268ee8a847212fe166a96d9b9c9794600297600094610ad4575b50501b916000199060031b1c19161790555b51151591019060ff801983541691151516179055565b6104ea604051928392610ac3846113e4565b60a0608085015260a08401916111fa565b015192508d80610a89565b9190601f9493941984168660005283600020936000905b828210610b5c57505092600295928592610ab199967f42e349952e50b50f98db671f404474dc01def61592268ee8a847212fe166a96d9d9e999610610b43575b505050811b019055610a9b565b015160001960f88460031b161c191690558b8080610b36565b808886978294978701518155019601940190610af6565b610b9d908660005283600020601f870160051c8101918588106105bf57601f0160051c01906111e3565b8a610a43565b82519293919260019261ffff600486901b81811b199092169216901b1793019101610a11565b80610bdf61ffff61065b610656610be495611321565b6112fc565b6109c0565b346100fd5760c03660031901126100fd57610c02610faf565b610c0a610fbf565b610c12610fcf565b67ffffffffffffffff91906064358381116100fd57610c35903690600401610fdf565b6084929192359461ffff861686036100fd5760a435908115158092036100fd57610c5d6110fe565b600460ff89161015610f7957600560ff87161015610f415760ff8416151580610f33575b15610efe5761ffff871615610ec85760405160f889811b6001600160f81b03199081166020840190815289831b821660218501529187901b16602283015290610ccd81602381016107ab565b51902060405192610cdd84611088565b610ce8368689611156565b845260ff8616602085015261ffff89166040850152610d0d60ff8b166060860161119d565b60808401526000526001602052604060002090825180519182116100e757610d3583546111a9565b601f8111610e96575b50602090601f8311600114610e2957600193929160009183610e1e575b5050600019600383901b1c191690831b1781555b019460ff6020830151169486549562ffff00604085015160081b1691606085015195600487101561086b577f33f28c54c8d68550cf1e9a851bef0ada59d69feb3f97f3bcc8fbb5c1fd012a4a9960ff998a9863ff00000061ffff97610e0e9764ff0000000060808e9d0151151560201b169464ffffffffff191617179160181b16171790556040519889981688526060602089015260608801916111fa565b97166040850152169516930390a3005b015190508b80610d5b565b908360005260206000209160005b601f1985168110610e7e575091839160019594938694601f19811610610e65575b505050811b018155610d6f565b015160001960f88460031b161c191690558b8080610e58565b91926020600181928685015181550194019201610e37565b610ec290846000526020600020601f850160051c810191602086106105bf57601f0160051c01906111e3565b8a610d3e565b60405162461bcd60e51b815260206004820152600e60248201526d496e76616c696420706f696e747360901b6044820152606490fd5b60405162461bcd60e51b815260206004820152600d60248201526c125b9d985b1a59081b195d995b609a1b6044820152606490fd5b50600a60ff85161115610c81565b60405162461bcd60e51b815260206004820152601060248201526f125b9d985b1a59081cdada5b1b08125160821b6044820152606490fd5b60405162461bcd60e51b815260206004820152600e60248201526d24b73b30b634b21039b2b0b9b7b760911b6044820152606490fd5b6004359060ff821682036100fd57565b6024359060ff821682036100fd57565b6044359060ff821682036100fd57565b9181601f840112156100fd5782359167ffffffffffffffff83116100fd57602083818601950101116100fd57565b359061ffff821682036100fd57565b6000915b6004831061102d57505050565b60019061ffff83511681526020809101920192019190611020565b919082519283825260005b848110611074575050826000602080949584010152601f8019910116010190565b602081830181015184830182015201611053565b60a0810190811067ffffffffffffffff8211176100e757604052565b6060810190811067ffffffffffffffff8211176100e757604052565b6080810190811067ffffffffffffffff8211176100e757604052565b90601f8019910116810190811067ffffffffffffffff8211176100e757604052565b6000546001600160a01b0316330361111257565b606460405162461bcd60e51b815260206004820152602060248201527f4f776e61626c653a2063616c6c6572206973206e6f7420746865206f776e65726044820152fd5b92919267ffffffffffffffff82116100e75760405191611180601f8201601f1916602001846110dc565b8294818452818301116100fd578281602093846000960137010152565b600482101561086b5752565b90600182811c921680156111d9575b60208310146111c357565b634e487b7160e01b600052602260045260246000fd5b91607f16916111b8565b8181106111ee575050565b600081556001016111e3565b908060209392818452848401376000828201840152601f01601f1916010190565b906040519182600082549261122f846111a9565b90818452600194858116908160001461129e575060011461125b575b5050611259925003836110dc565b565b9093915060005260209081600020936000915b8183106112865750506112599350820101388061124b565b8554888401850152948501948794509183019161126e565b91505061125994506020925060ff191682840152151560051b820101388061124b565b156112c857565b60405162461bcd60e51b815260206004820152600c60248201526b496e76616c6964207261636560a01b6044820152606490fd5b600019811461130b5760010190565b634e487b7160e01b600052601160045260246000fd5b60048110156113335760051b60240190565b634e487b7160e01b600052603260045260246000fd5b3561ffff811681036100fd5790565b1561135f57565b60405162461bcd60e51b815260206004820152601760248201527f496e76616c6964206174747269627574652076616c75650000000000000000006044820152606490fd5b90604051916113b2836110c0565b8260a49182116100fd576024905b8282106113cc57505050565b602080916113d98461100d565b8152019101906113c0565b60246000915b600483106113f757505050565b60019061ffff6114068461100d565b168152920191602091820191016113ea565b90604051915461ffff908181168452818160101c166020850152818160201c16604085015260301c166060830152611259826110c0565b1561145657565b60405162461bcd60e51b815260206004820152600d60248201526c496e76616c696420636c61737360981b6044820152606490fdfea264697066735822122053beda75d8392d74143602ebd7e481667cacc7121fcda88d842eabfcd546b3aa64736f6c63430008140033","linkReferences":{}},"methodIdentifiers":{"VERSION()":"ffa1ad74","getClass(uint8)":"8bb5ad96","getRace(uint8)":"5e2bb68d","getSkill(uint8,uint8,uint8)":"6503e54b","owner()":"8da5cb5b","renounceOwnership()":"715018a6","setClass(uint8,uint16[4],uint16[4],string,bool)":"732ba8bb","setRace(uint8,uint16[4],string,bool)":"3fd6a5c2","setSkill(uint8,uint8,uint8,string,uint16,bool)":"14392036","transferOwnership(address)":"f2fde38b"},"id":39}