{"abi":[{"type":"function","name":"ENERGY_RECOVERY_RATE","inputs":[],"outputs":[{"name":"","type":"uint256","internalType":"uint256"}],"stateMutability":"view"},{"type":"function","name":"MAX_DAILY_ENERGY","inputs":[],"outputs":[{"name":"","type":"uint256","internalType":"uint256"}],"stateMutability":"view"},{"type":"function","name":"MAX_DAILY_POINTS","inputs":[],"outputs":[{"name":"","type":"uint256","internalType":"uint256"}],"stateMutability":"view"},{"type":"function","name":"VERSION","inputs":[],"outputs":[{"name":"","type":"string","internalType":"string"}],"stateMutability":"view"},{"type":"function","name":"addDailyPoints","inputs":[{"name":"nftContract","type":"address","internalType":"address"},{"name":"tokenId","type":"uint256","internalType":"uint256"},{"name":"amount","type":"uint256","internalType":"uint256"}],"outputs":[],"stateMutability":"nonpayable"},{"type":"function","name":"consumeEnergy","inputs":[{"name":"nftContract","type":"address","internalType":"address"},{"name":"tokenId","type":"uint256","internalType":"uint256"},{"name":"amount","type":"uint256","internalType":"uint256"}],"outputs":[],"stateMutability":"nonpayable"},{"type":"function","name":"createHero","inputs":[{"name":"nftContract","type":"address","internalType":"address"},{"name":"tokenId","type":"uint256","internalType":"uint256"},{"name":"name","type":"string","internalType":"string"},{"name":"race","type":"uint8","internalType":"enum HeroV4.Race"},{"name":"gender","type":"uint8","internalType":"enum HeroV4.Gender"}],"outputs":[],"stateMutability":"nonpayable"},{"type":"function","name":"getHeroEquipment","inputs":[{"name":"nftContract","type":"address","internalType":"address"},{"name":"tokenId","type":"uint256","internalType":"uint256"}],"outputs":[{"name":"","type":"tuple[]","internalType":"struct HeroV4.Equipment[]","components":[{"name":"contractAddress","type":"address","internalType":"address"},{"name":"tokenId","type":"uint256","internalType":"uint256"},{"name":"slot","type":"uint8","internalType":"uint8"}]}],"stateMutability":"view"},{"type":"function","name":"getHeroInfo","inputs":[{"name":"nftContract","type":"address","internalType":"address"},{"name":"tokenId","type":"uint256","internalType":"uint256"}],"outputs":[{"name":"name","type":"string","internalType":"string"},{"name":"race","type":"uint8","internalType":"enum HeroV4.Race"},{"name":"gender","type":"uint8","internalType":"enum HeroV4.Gender"},{"name":"level","type":"uint256","internalType":"uint256"},{"name":"energy","type":"uint256","internalType":"uint256"},{"name":"dailyPoints","type":"uint256","internalType":"uint256"}],"stateMutability":"view"},{"type":"function","name":"getHeroSkills","inputs":[{"name":"nftContract","type":"address","internalType":"address"},{"name":"tokenId","type":"uint256","internalType":"uint256"},{"name":"season","type":"uint8","internalType":"enum HeroV4.Season"}],"outputs":[{"name":"","type":"uint8[5]","internalType":"uint8[5]"}],"stateMutability":"view"},{"type":"function","name":"getRegisteredNFTCount","inputs":[],"outputs":[{"name":"","type":"uint256","internalType":"uint256"}],"stateMutability":"view"},{"type":"function","name":"getRegisteredNFTs","inputs":[],"outputs":[{"name":"","type":"address[]","internalType":"address[]"}],"stateMutability":"view"},{"type":"function","name":"initialize","inputs":[],"outputs":[],"stateMutability":"nonpayable"},{"type":"function","name":"isRegistered","inputs":[{"name":"","type":"address","internalType":"address"}],"outputs":[{"name":"","type":"bool","internalType":"bool"}],"stateMutability":"view"},{"type":"function","name":"officialNFT","inputs":[],"outputs":[{"name":"","type":"address","internalType":"address"}],"stateMutability":"view"},{"type":"function","name":"owner","inputs":[],"outputs":[{"name":"","type":"address","internalType":"address"}],"stateMutability":"view"},{"type":"function","name":"proxiableUUID","inputs":[],"outputs":[{"name":"","type":"bytes32","internalType":"bytes32"}],"stateMutability":"view"},{"type":"function","name":"registerNFT","inputs":[{"name":"nftContract","type":"address","internalType":"address"},{"name":"isOfficial","type":"bool","internalType":"bool"}],"outputs":[],"stateMutability":"nonpayable"},{"type":"function","name":"renounceOwnership","inputs":[],"outputs":[],"stateMutability":"nonpayable"},{"type":"function","name":"transferOwnership","inputs":[{"name":"newOwner","type":"address","internalType":"address"}],"outputs":[],"stateMutability":"nonpayable"},{"type":"function","name":"updateEquipment","inputs":[{"name":"nftContract","type":"address","internalType":"address"},{"name":"tokenId","type":"uint256","internalType":"uint256"},{"name":"slot","type":"uint8","internalType":"uint8"},{"name":"equipContract","type":"address","internalType":"address"},{"name":"equipTokenId","type":"uint256","internalType":"uint256"}],"outputs":[],"stateMutability":"nonpayable"},{"type":"function","name":"updateSkill","inputs":[{"name":"nftContract","type":"address","internalType":"address"},{"name":"tokenId","type":"uint256","internalType":"uint256"},{"name":"season","type":"uint8","internalType":"enum HeroV4.Season"},{"name":"skillIndex","type":"uint8","internalType":"uint8"},{"name":"level","type":"uint8","internalType":"uint8"}],"outputs":[],"stateMutability":"nonpayable"},{"type":"function","name":"upgradeTo","inputs":[{"name":"newImplementation","type":"address","internalType":"address"}],"outputs":[],"stateMutability":"nonpayable"},{"type":"function","name":"upgradeToAndCall","inputs":[{"name":"newImplementation","type":"address","internalType":"address"},{"name":"data","type":"bytes","internalType":"bytes"}],"outputs":[],"stateMutability":"payable"},{"type":"event","name":"AdminChanged","inputs":[{"name":"previousAdmin","type":"address","indexed":false,"internalType":"address"},{"name":"newAdmin","type":"address","indexed":false,"internalType":"address"}],"anonymous":false},{"type":"event","name":"BeaconUpgraded","inputs":[{"name":"beacon","type":"address","indexed":true,"internalType":"address"}],"anonymous":false},{"type":"event","name":"HeroCreated","inputs":[{"name":"nftContract","type":"address","indexed":true,"internalType":"address"},{"name":"tokenId","type":"uint256","indexed":true,"internalType":"uint256"},{"name":"name","type":"string","indexed":false,"internalType":"string"}],"anonymous":false},{"type":"event","name":"HeroEnergyUpdated","inputs":[{"name":"nftContract","type":"address","indexed":true,"internalType":"address"},{"name":"tokenId","type":"uint256","indexed":true,"internalType":"uint256"},{"name":"newEnergy","type":"uint256","indexed":false,"internalType":"uint256"}],"anonymous":false},{"type":"event","name":"HeroEquipmentUpdated","inputs":[{"name":"nftContract","type":"address","indexed":true,"internalType":"address"},{"name":"tokenId","type":"uint256","indexed":true,"internalType":"uint256"},{"name":"slot","type":"uint8","indexed":false,"internalType":"uint8"},{"name":"equipContract","type":"address","indexed":false,"internalType":"address"},{"name":"equipTokenId","type":"uint256","indexed":false,"internalType":"uint256"}],"anonymous":false},{"type":"event","name":"HeroPointsUpdated","inputs":[{"name":"nftContract","type":"address","indexed":true,"internalType":"address"},{"name":"tokenId","type":"uint256","indexed":true,"internalType":"uint256"},{"name":"newPoints","type":"uint256","indexed":false,"internalType":"uint256"}],"anonymous":false},{"type":"event","name":"HeroSkillUpdated","inputs":[{"name":"nftContract","type":"address","indexed":true,"internalType":"address"},{"name":"tokenId","type":"uint256","indexed":true,"internalType":"uint256"},{"name":"season","type":"uint8","indexed":false,"internalType":"uint8"},{"name":"skillIndex","type":"uint8","indexed":false,"internalType":"uint8"},{"name":"level","type":"uint8","indexed":false,"internalType":"uint8"}],"anonymous":false},{"type":"event","name":"Initialized","inputs":[{"name":"version","type":"uint8","indexed":false,"internalType":"uint8"}],"anonymous":false},{"type":"event","name":"NFTRegistered","inputs":[{"name":"nftContract","type":"address","indexed":true,"internalType":"address"},{"name":"isOfficial","type":"bool","indexed":false,"internalType":"bool"}],"anonymous":false},{"type":"event","name":"NFTUnregistered","inputs":[{"name":"nftContract","type":"address","indexed":true,"internalType":"address"}],"anonymous":false},{"type":"event","name":"OwnershipTransferred","inputs":[{"name":"previousOwner","type":"address","indexed":true,"internalType":"address"},{"name":"newOwner","type":"address","indexed":true,"internalType":"address"}],"anonymous":false},{"type":"event","name":"Upgraded","inputs":[{"name":"implementation","type":"address","indexed":true,"internalType":"address"}],"anonymous":false}],"bytecode":{"object":"0x60a0806040523461003157306080526121c6908161003782396080518181816112e6015281816113e401526119390152f35b600080fdfe608060408181526004918236101561001657600080fd5b600092833560e01c9182630c07036614611bd0575081633659cfe614611911578163434f52da146116675781634f1ef2861461139357816352d1902d146112d05781635ff478c8146112a7578163715018a61461124a5781638129fc1c146110dd57816383ee9628146110be5781638da5cb5b146110955781638e22719214610f6a57816393b5a41114610ea55781639af69ebf14610e87578163ae9a18e314610cf3578163bcd418b014610b83578163c0d0f1ad14610b66578163c3c5a54714610b28578163d575ba6714610a52578163e6606ef71461085e578163f0bcf87114610729578163f2fde38b14610693578163f5a1f0f814610561578163fd52db4714610218575063ffa1ad741461012d57600080fd5b346102145781600319360112610214578051908260cc5461014d81611d33565b808552916001918083169081156101ec575060011461018f575b5050506101798261018b940383611c54565b51918291602083526020830190611cf3565b0390f35b945060cc85527f47197230e1e4b29fc0bd84d7d78966c0925452aff72a2a121538b102457e9ebe5b8286106101d45750505061017982602061018b9582010194610167565b805460208787018101919091529095019481016101b7565b61018b97508693506020925061017994915060ff191682840152151560051b82010194610167565b5080fd5b82843461055e5760a036600319011261055e57610233611beb565b9260249283359060443560ff9687821680920361055a576001600160a01b03926064358481169081900361055657846084359361026e611d6d565b169485895260209060ca82526102888c858c20541661205d565b60029b8c871161051b57878b9d929c9d5260cd8352848b20898c528352848b20916102bd6102b68454611d33565b151561209e565b60058c9301925b835480821015610506578984846102db858961210e565b5001541614610308575060001981146102f6576001016102c4565b634e487b7160e01b8d5260118c528e8dfd5b909c9e9295989b9396999c60009e9295989b9e19918281019081116104f25761033461033c918a61210e565b50918961210e565b6104df578681838a93036104a2575b505050508654801561048f5701610362818861210e565b61047d578f908082889255826001820155015586555b876103b8575b8d8d8d7ff8226d06b73965b2435d2d98a63580bb980bf6b6d923486f55f63b28f97d7c3160608f8f8f8f8f8251948552840152820152a380f35b88516103c381611c06565b888152878101928b84528a8201978d8952805490600160401b82101561046a57906103f39160018201815561210e565b9590956104545750505183546001600160a01b031916911617825551600182015592519201805460ff191692909116919091179055817ff8226d06b73965b2435d2d98a63580bb980bf6b6d923486f55f63b28f97d7c3160608b808061037e565b9093508f9250829150634e487b7160e01b825252fd5b50508f604186634e487b7160e01b835252fd5b50634e487b7160e01b8f528e8452828ffd5b50634e487b7160e01b8f5260318452828ffd5b8190868554166bffffffffffffffffffffffff60a01b82541617815560018086015490820155019201541660ff198254161790558f86868261034b565b5050634e487b7160e01b8f528e8452828ffd5b5050634e487b7160e01b8f5260118452828ffd5b50509295989b9c909396999194979a9c610378565b845162461bcd60e51b8152808b018490526016818e015275125b9d985b1a5908195c5d5a5c1b595b9d081cdb1bdd60521b6044820152606490fd5b8780fd5b8580fd5b80fd5b82843461055e578160031936011261055e576001600160a01b039283610585611beb565b168252602060cd81528383206024358452815260058484206105aa6102b68254611d33565b019283549267ffffffffffffffff8411610680575091908451916105d3828260051b0184611c54565b8083528183018095855282852085915b83831061063f575050505084519481860192828752518093528086019493905b8382106106105786860387f35b8451805189168752808401518785015281015160ff168682015260609095019493820193600190910190610603565b6003856001928b999798995161065481611c06565b8d8654168152848601548382015260ff6002870154168d820152815201920192019190959493956105e3565b634e487b7160e01b825260419052602490fd5b905034610725576020366003190112610725576106ae611beb565b916106b7611d6d565b6001600160a01b038316156106d357836106d084611dc5565b80f35b906020608492519162461bcd60e51b8352820152602660248201527f4f776e61626c653a206e6577206f776e657220697320746865207a65726f206160448201526564647265737360d01b6064820152fd5b8280fd5b9050346107255761073936611cc9565b9291610746949194611d6d565b6001600160a01b031680865260ca6020528186205490939061076a9060ff1661205d565b83865260cd60205281862085875260205281862061078b6102b68254611d33565b600681018054620151809081810180911161084b57906003939291421015610830575b505001928354908282106107f75750916107ec7f5d0547d6f8851c160cfac5a11d234a39d7204466412cee564954fe37036003b69492602094612140565b80925551908152a380f35b606490602085519162461bcd60e51b83528201526013602482015272496e73756666696369656e7420656e6572677960681b6044820152fd5b61084290606485850155420642612140565b905538806107ae565b634e487b7160e01b8a526011875260248afd5b91905034610725578060031936011261072557610879611beb565b9060249283359384151593848603610a4e57610893611d6d565b6001600160a01b03908116958615610a165786885260ca60205260ff85892054166109db5761097a575b5084865260ca602052828620805460ff1916600117905560cb5491600160401b83101561096957600183018060cb5583101561095857505060cb85527fa7ce836d032b2bf62b7e2097a8e0a6d8aeb35405ad15271e96d3b0188a1d06fb0180546001600160a01b03191684179055519081527ff92741b49f85c52ec622bb085499e58d4ed79bed0fe6b9143ae0ae7c54dcabf290602090a280f35b634e487b7160e01b87526032905285fd5b634e487b7160e01b87526041905285fd5b60c954908116610999576001600160a01b031916851760c955386108bd565b506018906020606494519362461bcd60e51b85528401528201527f4f6666696369616c204e465420616c72656164792073657400000000000000006044820152fd5b845162461bcd60e51b81526020818601526016818501527513919508185b1c9958591e481c9959da5cdd195c995960521b6044820152606490fd5b845162461bcd60e51b815260208186015260138185015272496e76616c6964204e4654206164647265737360681b6044820152606490fd5b8680fd5b90503461072557606036600319011261072557610a6d611beb565b60443582811015610b2457610abd9160a08551610a8981611c38565b36903760018060a01b0316855260209260cd845284862060243587528452848620610ab76102b68254611d33565b016120e0565b825190549260ff84818096168452818160081c1685850152818160101c1683850152818160181c166060850152841c166080830152610afb82611c38565b519390845b60058310610b0d5760a086f35b838060019287855116815201920192019190610b00565b8480fd5b5050346102145760203660031901126102145760209160ff9082906001600160a01b03610b53611beb565b16815260ca855220541690519015158152f35b505034610214578160031936011261021457602090516103e88152f35b82843461055e578160031936011261055e576001600160a01b03610ba5611beb565b16815260209060cd82528281206024358252825282812092835490610bcc6102b683611d33565b600192838601549160ff8084169360081c169160028801549360038901549560078a01549784519a8b918591610c0185611d33565b948585528d8382169182600014610cd1575050600114610c94575b5050610c2a9250038a611c54565b610c3e83519960c08b5260c08b0190611cf3565b976005821015610c81578901526002831015610c6e57508680985001526060850152608084015260a08301520390f35b634e487b7160e01b815260218952602490fd5b634e487b7160e01b835260218b52602483fd5b8c925086528186209086915b858310610cb8575050610c2a93508201018d80610c1c565b819484848396959654920101520191018c928c92610ca0565b9250935050610c2a94915060ff191682840152151560051b8201018d80610c1c565b9050346107255760a036600319011261072557610d0e611beb565b9160243592604435918383101561055a576064359360ff851690818603610556576084359360ff8516809503610e8357610d46611d6d565b60018060a01b03169586895260209160ca8352610d6860ff868c20541661205d565b6005841015610e4a5760648611610e1157878a5260cd8352848a20898b528352610d9d8782878d20610ab76102b68254611d33565b906005831015610dfe5750600582901c01805460ff60039390931b60f81683811b199091169087901b1790558351951685528401528201527f2353c4a88dfc5c98e27641be2139000d98ef78cf81761a2980b480cf91f8849290606090a380f35b634e487b7160e01b8b526032905260248afd5b845162461bcd60e51b81529081018390526013602482015272125b9d985b1a59081cdada5b1b081b195d995b606a1b6044820152606490fd5b845162461bcd60e51b81529081018390526013602482015272092dcecc2d8d2c840e6d6d2d8d840d2dcc8caf606b1b6044820152606490fd5b8880fd5b50503461021457816003193601126102145760209051620151808152f35b82843461055e578060031936011261055e5790805191829060cb54918285526020809501809360cb84527fa7ce836d032b2bf62b7e2097a8e0a6d8aeb35405ad15271e96d3b0188a1d06fb90845b818110610f4d5750505081610f09910382611c54565b83519485948186019282875251809352850193925b828110610f2d57505050500390f35b83516001600160a01b031685528695509381019392810192600101610f1e565b82546001600160a01b031684529288019260019283019201610ef3565b90503461072557610f7a36611cc9565b9291610f87949194611d6d565b6001600160a01b031680865260ca60205281862054909390610fab9060ff1661205d565b83865260cd602052818620858752602052818620610fcc6102b68254611d33565b600881018054620151809081810180911161084b5790600793929142101561107b575b505001928354906103e86110038484612163565b116110385750916107ec7fe459daf79d9e61791e256872c8b71e9052ff15fe492d077074c1173dddb111d89492602094612163565b606490602085519162461bcd60e51b8352820152601b60248201527f4461696c7920706f696e7473206c696d697420657863656564656400000000006044820152fd5b61108c908a85850155420642612140565b90553880610fef565b50503461021457816003193601126102145760335490516001600160a01b039091168152602090f35b50503461021457816003193601126102145760209060cb549051908152f35b91905034610725578260031936011261072557825460ff8160081c16158061123e575b156111e45761ffff1916610104178084556111299060081c60ff1661112481611ffd565b611ffd565b61113233611dc5565b61114260ff845460081c16611ffd565b61114d60cc54611d33565b601f811161119c575b50600a640342e302e360dc1b0160cc55825461ff0019168355519081527f7f26b83ff96e1f2b6a682f133852f6798a09c465da95921460cefb384740249890602090a180f35b60cc8452601f7f47197230e1e4b29fc0bd84d7d78966c0925452aff72a2a121538b102457e9ebe910160051c8101905b8181106111d95750611156565b8481556001016111cc565b815162461bcd60e51b8152602081850152602e60248201527f496e697469616c697a61626c653a20636f6e747261637420697320616c72656160448201526d191e481a5b9a5d1a585b1a5e995960921b6064820152608490fd5b508260ff821610611100565b833461055e578060031936011261055e57611263611d6d565b603380546001600160a01b0319811690915581906001600160a01b03167f8be0079c531659141344cd1fd0a4f28419497f9722a3daafe3b4186f6b6457e08280a380f35b50503461021457816003193601126102145760c95490516001600160a01b039091168152602090f35b9050823461055e578060031936011261055e57507f00000000000000000000000000000000000000000000000000000000000000006001600160a01b0316300361132b57602082516000805160206121718339815191528152f35b6020608492519162461bcd60e51b8352820152603860248201527f555550535570677261646561626c653a206d757374206e6f742062652063616c60448201527f6c6564207468726f7567682064656c656761746563616c6c00000000000000006064820152fd5b91809150600319360112610725576113a9611beb565b9060243567ffffffffffffffff8111610b245736602382011215610b24576113da9036906024818701359101611c92565b6001600160a01b037f0000000000000000000000000000000000000000000000000000000000000000811692919061141430851415611e0e565b611431600080516020612171833981519152948286541614611e6f565b611439611d6d565b7f4910fdfa16fed3260ed0e7147f7cc6da11a60208b5b9406d12a635614ffd91435460ff161561147157505050506106d09150611ed0565b82516352d1902d60e01b81526020959394918416919086818981865afa899181611634575b506114f557855162461bcd60e51b8152808901889052602e60248201527f45524331393637557067726164653a206e657720696d706c656d656e7461746960448201526d6f6e206973206e6f74205555505360901b6064820152608490fd5b96919295949396036115df575061150b85611ed0565b7fbc7cd75a20ee27fd9adebab32041f755214dbc6bffa90cc0225b39da2e5c2d3b8680a28251158015906115d7575b611546575b5050505080f35b6115c393858083519561155887611c06565b602787527f416464726573733a206c6f772d6c6576656c2064656c65676174652063616c6c86880152660819985a5b195960ca1b858801528581519101845af4913d156115cd573d6115b56115ac82611c76565b92519283611c54565b81528681943d92013e611f60565b503880808061153f565b5060609250611f60565b50600161153a565b825162461bcd60e51b8152908101849052602960248201527f45524331393637557067726164653a20756e737570706f727465642070726f786044820152681a58589b195555525160ba1b6064820152608490fd5b9091508781813d8311611660575b61164c8183611c54565b8101031261165c57519038611496565b8980fd5b503d611642565b8383346102145760a036600319011261021457611682611beb565b602435916044359467ffffffffffffffff9586811161055a573660238201121561055a576116b99036906024818501359101611c92565b91606435916005831015610a4e576084359460028610156105565760018060a01b03169485885260209360ca85526116f660ff858b20541661205d565b86895260cd8552838920888a528552611711848a2054611d33565b6118d85786895260cd8552838920888a5285528389209286519a8b116118c5575061173c8354611d33565b601f8111611882575b508499601f81116001146117f95790816117e8959493928b9c7f7d647992a58314ebc9a217d3404d368856d2f2029bb4d567d776b5644b76ad649a9b9c916117ee575b508160011b916000199060031b1c19161783555b600183019160ff61ff0084549260081b1692169061ffff191617179055600160028201556064600382015542600682015588600782015560084291015551928284938452830190611cf3565b0390a380f35b90508801518d611788565b838a52858a20601f1982168b5b81811061186b5750916001917f7d647992a58314ebc9a217d3404d368856d2f2029bb4d567d776b5644b76ad649a9b9c9d826117e8999897969510611852575b5050811b01835561179c565b8a015160001960f88460031b161c191690558d80611846565b898e015183559c88019c6001909201918801611806565b838a52858a20601f8c0160051c810191878d106118bb575b601f0160051c01905b8181106118b05750611745565b8a81556001016118a3565b909150819061189a565b634e487b7160e01b8a5260419052602489fd5b835162461bcd60e51b815280840186905260136024820152724865726f20616c72656164792065786973747360681b6044820152606490fd5b9190503461072557602080600319360112611bcc5761192e611beb565b916001600160a01b037f0000000000000000000000000000000000000000000000000000000000000000811661196630821415611e0e565b611983600080516020612171833981519152918383541614611e6f565b61198b611d6d565b8251908482019282841067ffffffffffffffff851117611bb9578385528883527f4910fdfa16fed3260ed0e7147f7cc6da11a60208b5b9406d12a635614ffd91435460ff16156119e5575050505050506106d09150611ed0565b869293949596169085516352d1902d60e01b815287818a81865afa8a9181611b86575b50611a6757865162461bcd60e51b8152808a01899052602e60248201527f45524331393637557067726164653a206e657720696d706c656d656e7461746960448201526d6f6e206973206e6f74205555505360901b6064820152608490fd5b979192939695949703611b315750611a7e82611ed0565b7fbc7cd75a20ee27fd9adebab32041f755214dbc6bffa90cc0225b39da2e5c2d3b8780a285845115801590611b2a575b611abc575b50505050505080f35b80611b1e96845196611acd88611c06565b602788527f416464726573733a206c6f772d6c6576656c2064656c65676174652063616c6c87890152660819985a5b195960ca1b868901525190845af4913d156115cd573d6115b56115ac82611c76565b50388080808085611ab3565b5080611aae565b835162461bcd60e51b8152908101859052602960248201527f45524331393637557067726164653a20756e737570706f727465642070726f786044820152681a58589b195555525160ba1b6064820152608490fd5b9091508881813d8311611bb2575b611b9e8183611c54565b81010312611bae57519038611a08565b8a80fd5b503d611b94565b634e487b7160e01b895260418852602489fd5b8380fd5b84903461021457816003193601126102145780606460209252f35b600435906001600160a01b0382168203611c0157565b600080fd5b6060810190811067ffffffffffffffff821117611c2257604052565b634e487b7160e01b600052604160045260246000fd5b60a0810190811067ffffffffffffffff821117611c2257604052565b90601f8019910116810190811067ffffffffffffffff821117611c2257604052565b67ffffffffffffffff8111611c2257601f01601f191660200190565b929192611c9e82611c76565b91611cac6040519384611c54565b829481845281830111611c01578281602093846000960137010152565b6060906003190112611c01576004356001600160a01b0381168103611c0157906024359060443590565b919082519283825260005b848110611d1f575050826000602080949584010152601f8019910116010190565b602081830181015184830182015201611cfe565b90600182811c92168015611d63575b6020831014611d4d57565b634e487b7160e01b600052602260045260246000fd5b91607f1691611d42565b6033546001600160a01b03163303611d8157565b606460405162461bcd60e51b815260206004820152602060248201527f4f776e61626c653a2063616c6c6572206973206e6f7420746865206f776e65726044820152fd5b603380546001600160a01b039283166001600160a01b0319821681179092559091167f8be0079c531659141344cd1fd0a4f28419497f9722a3daafe3b4186f6b6457e0600080a3565b15611e1557565b60405162461bcd60e51b815260206004820152602c60248201527f46756e6374696f6e206d7573742062652063616c6c6564207468726f7567682060448201526b19195b1959d85d1958d85b1b60a21b6064820152608490fd5b15611e7657565b60405162461bcd60e51b815260206004820152602c60248201527f46756e6374696f6e206d7573742062652063616c6c6564207468726f7567682060448201526b6163746976652070726f787960a01b6064820152608490fd5b803b15611f055760008051602061217183398151915280546001600160a01b0319166001600160a01b03909216919091179055565b60405162461bcd60e51b815260206004820152602d60248201527f455243313936373a206e657720696d706c656d656e746174696f6e206973206e60448201526c1bdd08184818dbdb9d1c9858dd609a1b6064820152608490fd5b91929015611fc25750815115611f74575090565b3b15611f7d5790565b60405162461bcd60e51b815260206004820152601d60248201527f416464726573733a2063616c6c20746f206e6f6e2d636f6e74726163740000006044820152606490fd5b825190915015611fd55750805190602001fd5b60405162461bcd60e51b815260206004820152908190611ff9906024830190611cf3565b0390fd5b1561200457565b60405162461bcd60e51b815260206004820152602b60248201527f496e697469616c697a61626c653a20636f6e7472616374206973206e6f74206960448201526a6e697469616c697a696e6760a81b6064820152608490fd5b1561206457565b60405162461bcd60e51b8152602060048201526012602482015271139195081b9bdd081c9959da5cdd195c995960721b6044820152606490fd5b156120a557565b60405162461bcd60e51b815260206004820152601360248201527212195c9bc8191bd95cc81b9bdd08195e1a5cdd606a1b6044820152606490fd5b9060048110156120f857600052602052604060002090565b634e487b7160e01b600052602160045260246000fd5b805482101561212a576000526003602060002091020190600090565b634e487b7160e01b600052603260045260246000fd5b9190820391821161214d57565b634e487b7160e01b600052601160045260246000fd5b9190820180921161214d5756fe360894a13ba1a3210667c828492db98dca3e2076cc3735a920a3ca505d382bbca26469706673582212209e2a29440178f5c488aa07d5e186202138e00a2301293926ed2f0253b71b897164736f6c63430008140033","linkReferences":{}},"methodIdentifiers":{"ENERGY_RECOVERY_RATE()":"9af69ebf","MAX_DAILY_ENERGY()":"0c070366","MAX_DAILY_POINTS()":"c0d0f1ad","VERSION()":"ffa1ad74","addDailyPoints(address,uint256,uint256)":"8e227192","consumeEnergy(address,uint256,uint256)":"f0bcf871","createHero(address,uint256,string,uint8,uint8)":"434f52da","getHeroEquipment(address,uint256)":"f5a1f0f8","getHeroInfo(address,uint256)":"bcd418b0","getHeroSkills(address,uint256,uint8)":"d575ba67","getRegisteredNFTCount()":"83ee9628","getRegisteredNFTs()":"93b5a411","initialize()":"8129fc1c","isRegistered(address)":"c3c5a547","officialNFT()":"5ff478c8","owner()":"8da5cb5b","proxiableUUID()":"52d1902d","registerNFT(address,bool)":"e6606ef7","renounceOwnership()":"715018a6","transferOwnership(address)":"f2fde38b","updateEquipment(address,uint256,uint8,address,uint256)":"fd52db47","updateSkill(address,uint256,uint8,uint8,uint8)":"ae9a18e3","upgradeTo(address)":"3659cfe6","upgradeToAndCall(address,bytes)":"4f1ef286"},"id":90}