{"abi":[{"type":"constructor","inputs":[],"stateMutability":"nonpayable"},{"type":"function","name":"VERSION","inputs":[],"outputs":[{"name":"","type":"string","internalType":"string"}],"stateMutability":"view"},{"type":"function","name":"getClass","inputs":[{"name":"classId","type":"uint8","internalType":"uint8"}],"outputs":[{"name":"","type":"tuple","internalType":"struct IHeroMetadata.ClassAttributes","components":[{"name":"baseAttributes","type":"uint16[4]","internalType":"uint16[4]"},{"name":"growthRates","type":"uint16[4]","internalType":"uint16[4]"},{"name":"description","type":"string","internalType":"string"},{"name":"isActive","type":"bool","internalType":"bool"}]}],"stateMutability":"view"},{"type":"function","name":"getRace","inputs":[{"name":"raceId","type":"uint8","internalType":"uint8"}],"outputs":[{"name":"","type":"tuple","internalType":"struct IHeroMetadata.RaceAttributes","components":[{"name":"baseAttributes","type":"uint16[4]","internalType":"uint16[4]"},{"name":"description","type":"string","internalType":"string"},{"name":"isActive","type":"bool","internalType":"bool"}]}],"stateMutability":"view"},{"type":"function","name":"getSkill","inputs":[{"name":"seasonId","type":"uint8","internalType":"uint8"},{"name":"skillId","type":"uint8","internalType":"uint8"},{"name":"level","type":"uint8","internalType":"uint8"}],"outputs":[{"name":"","type":"tuple","internalType":"struct IHeroMetadata.Skill","components":[{"name":"name","type":"string","internalType":"string"},{"name":"level","type":"uint8","internalType":"uint8"},{"name":"points","type":"uint16","internalType":"uint16"},{"name":"season","type":"uint8","internalType":"enum IHeroMetadata.Season"},{"name":"isActive","type":"bool","internalType":"bool"}]}],"stateMutability":"view"},{"type":"function","name":"initialize","inputs":[],"outputs":[],"stateMutability":"nonpayable"},{"type":"function","name":"owner","inputs":[],"outputs":[{"name":"","type":"address","internalType":"address"}],"stateMutability":"view"},{"type":"function","name":"proxiableUUID","inputs":[],"outputs":[{"name":"","type":"bytes32","internalType":"bytes32"}],"stateMutability":"view"},{"type":"function","name":"renounceOwnership","inputs":[],"outputs":[],"stateMutability":"nonpayable"},{"type":"function","name":"setClass","inputs":[{"name":"classId","type":"uint8","internalType":"uint8"},{"name":"baseAttributes","type":"uint16[4]","internalType":"uint16[4]"},{"name":"growthRates","type":"uint16[4]","internalType":"uint16[4]"},{"name":"description","type":"string","internalType":"string"},{"name":"isActive","type":"bool","internalType":"bool"}],"outputs":[],"stateMutability":"nonpayable"},{"type":"function","name":"setRace","inputs":[{"name":"raceId","type":"uint8","internalType":"uint8"},{"name":"baseAttributes","type":"uint16[4]","internalType":"uint16[4]"},{"name":"description","type":"string","internalType":"string"},{"name":"isActive","type":"bool","internalType":"bool"}],"outputs":[],"stateMutability":"nonpayable"},{"type":"function","name":"setSkill","inputs":[{"name":"seasonId","type":"uint8","internalType":"uint8"},{"name":"skillId","type":"uint8","internalType":"uint8"},{"name":"level","type":"uint8","internalType":"uint8"},{"name":"name","type":"string","internalType":"string"},{"name":"points","type":"uint16","internalType":"uint16"},{"name":"isActive","type":"bool","internalType":"bool"}],"outputs":[],"stateMutability":"nonpayable"},{"type":"function","name":"transferOwnership","inputs":[{"name":"newOwner","type":"address","internalType":"address"}],"outputs":[],"stateMutability":"nonpayable"},{"type":"function","name":"upgradeTo","inputs":[{"name":"newImplementation","type":"address","internalType":"address"}],"outputs":[],"stateMutability":"nonpayable"},{"type":"function","name":"upgradeToAndCall","inputs":[{"name":"newImplementation","type":"address","internalType":"address"},{"name":"data","type":"bytes","internalType":"bytes"}],"outputs":[],"stateMutability":"payable"},{"type":"event","name":"AdminChanged","inputs":[{"name":"previousAdmin","type":"address","indexed":false,"internalType":"address"},{"name":"newAdmin","type":"address","indexed":false,"internalType":"address"}],"anonymous":false},{"type":"event","name":"BeaconUpgraded","inputs":[{"name":"beacon","type":"address","indexed":true,"internalType":"address"}],"anonymous":false},{"type":"event","name":"ClassUpdated","inputs":[{"name":"classId","type":"uint8","indexed":true,"internalType":"uint8"},{"name":"baseAttributes","type":"uint16[4]","indexed":false,"internalType":"uint16[4]"},{"name":"growthRates","type":"uint16[4]","indexed":false,"internalType":"uint16[4]"},{"name":"description","type":"string","indexed":false,"internalType":"string"}],"anonymous":false},{"type":"event","name":"Initialized","inputs":[{"name":"version","type":"uint8","indexed":false,"internalType":"uint8"}],"anonymous":false},{"type":"event","name":"OwnershipTransferred","inputs":[{"name":"previousOwner","type":"address","indexed":true,"internalType":"address"},{"name":"newOwner","type":"address","indexed":true,"internalType":"address"}],"anonymous":false},{"type":"event","name":"RaceUpdated","inputs":[{"name":"raceId","type":"uint8","indexed":true,"internalType":"uint8"},{"name":"baseAttributes","type":"uint16[4]","indexed":false,"internalType":"uint16[4]"},{"name":"description","type":"string","indexed":false,"internalType":"string"}],"anonymous":false},{"type":"event","name":"SkillUpdated","inputs":[{"name":"seasonId","type":"uint8","indexed":true,"internalType":"uint8"},{"name":"skillId","type":"uint8","indexed":true,"internalType":"uint8"},{"name":"level","type":"uint8","indexed":false,"internalType":"uint8"},{"name":"name","type":"string","indexed":false,"internalType":"string"},{"name":"points","type":"uint16","indexed":false,"internalType":"uint16"}],"anonymous":false},{"type":"event","name":"Upgraded","inputs":[{"name":"implementation","type":"address","indexed":true,"internalType":"address"}],"anonymous":false}],"bytecode":{"object":"0x60a080604052346100dc57306080526000549060ff8260081c1661008a575060ff8082160361004f575b604051611ef390816100e28239608051818181610ac601528181610bc5015261111c0152f35b60ff90811916176000557f7f26b83ff96e1f2b6a682f133852f6798a09c465da95921460cefb3847402498602060405160ff8152a138610029565b62461bcd60e51b815260206004820152602760248201527f496e697469616c697a61626c653a20636f6e747261637420697320696e697469604482015266616c697a696e6760c81b6064820152608490fd5b600080fdfe6080604052600436101561001257600080fd5b60003560e01c806314392036146113875780633659cfe6146110f75780633fd6a5c214610e355780634f1ef28614610b7757806352d1902d14610ab35780635e2bb68d146109e15780636503e54b1461087a578063715018a61461081d578063732ba8bb1461043a5780638129fc1c146102f45780638bb5ad96146101e55780638da5cb5b146101bc578063f2fde38b1461012d5763ffa1ad74146100b657600080fd5b346101285760003660031901126101285760405160408101908082106001600160401b038311176101125761010e916040526005815264312e302e3160d81b60208201526040519182916020835260208301906118bf565b0390f35b634e487b7160e01b600052604160045260246000fd5b600080fd5b34610128576020366003190112610128576101466117b9565b61014e6118ff565b6001600160a01b038116156101685761016690611957565b005b60405162461bcd60e51b815260206004820152602660248201527f4f776e61626c653a206e6577206f776e657220697320746865207a65726f206160448201526564647265737360d01b6064820152608490fd5b34610128576000366003190112610128576097546040516001600160a01b039091168152602090f35b34610128576020806003193601126101285760ff61020161174d565b6000606060405161021181611805565b60405161021d81611805565b6080368237815260405161023081611805565b60803682378682015281604082015201521661024e60058210611e61565b60005260cb81526040600020906040519161026883611805565b61027181611e2a565b835261027f60018201611e2a565b908284019182526102ce60ff600361029960028501611c6d565b9360408801948552015416926060860193151584526102c360405196868897885287019051611893565b5160a0850190611893565b516102e861014091826101208601526101608501906118bf565b91511515908301520390f35b346101285760003660031901126101285760005460ff8160081c16159081809261042d575b8015610416575b156103ba5760ff198116600117600055816103a8575b5061035160ff60005460081c1661034c81611b8f565b611b8f565b61035a33611957565b6000549061036d60ff8360081c16611b8f565b61037357005b61ff0019166000557f7f26b83ff96e1f2b6a682f133852f6798a09c465da95921460cefb3847402498602060405160018152a1005b61ffff19166101011760005581610336565b60405162461bcd60e51b815260206004820152602e60248201527f496e697469616c697a61626c653a20636f6e747261637420697320616c72656160448201526d191e481a5b9a5d1a585b1a5e995960921b6064820152608490fd5b50303b1580156103205750600160ff821614610320565b50600160ff821610610319565b34610128576101603660031901126101285761045461174d565b3660a411610128576101243681116101285780356001600160401b0381116101285761048490369060040161177d565b610144358015158091036101285761049a6118ff565b6104a9600560ff871610611e61565b60005b6004811061079f5750604051936104c285611805565b6040516104ce81611805565b6024815b60a482106107875750508552604051906104eb82611805565b60a4825b82821061076f57505050602085015261050936838561185c565b6040850152606084015260ff841660005260cb6020526040600020835160009060005b6004811061073e575050815560208401519360009460005b6004811061070d575050600194858301556002820160408201518051906001600160401b038211610112576105798354611bfb565b601f81116106d0575b50602090601f831160011461065e5792826060936105d0979693600396600092610653575b505060001982871b1c1916908a1b1790555b0151151591019060ff801983541691151516179055565b604051926105dd84611df6565b60a46000608086015b6004821061063357877f6213c66cece181c210bf5d7d50b874dab6814854ff72738af1ad148c593c97ab888061062e8a8a60ff61012097886101008701521696840191611c4c565b0390a2005b602080859261ffff610644876117aa565b168152019301910190916105e6565b015190508c806105a7565b889291601f198316918560005260206000209260005b8181106106b85750926060959285926105d09a999660039996106106a0575b505050811b0190556105b9565b015160001983891b60f8161c191690558c8080610693565b8284015185558c969094019360209384019301610674565b6106fd90846000526020600020601f850160051c81019160208610610703575b601f0160051c0190611c35565b89610582565b90915081906106f0565b9095602061073560019261ffff8a51169085851b60031b9161ffff809116831b921b19161790565b97019101610544565b9091602061076660019261ffff8651169085851b60031b9161ffff809116831b921b19161790565b9301910161052c565b6020809161077c846117aa565b8152019101906104ef565b60208091610794846117aa565b8152019101906104d2565b61ffff6107bf816107b76107b285611d73565b611d9b565b161515611daa565b6107ce8260051b60a401611d9b565b16156107e2576107dd90611d4e565b6104ac565b60405162461bcd60e51b8152602060048201526013602482015272496e76616c69642067726f777468207261746560681b6044820152606490fd5b34610128576000366003190112610128576108366118ff565b609780546001600160a01b031981169091556000906001600160a01b03167f8be0079c531659141344cd1fd0a4f28419497f9722a3daafe3b4186f6b6457e08280a3005b346101285760603660031901126101285761089361174d565b61089b61175d565b906108a461176d565b610919604051936108b4856117cf565b60608552600060806020968288820152826040820152826060820152015261090b604051938492878401968791909260039360ff60f81b9283809260f81b16855260f81b16600184015260f81b1660028201520190565b03601f198101835282611820565b51902060005260c98152604060002090600160405192610938846117cf565b61094181611c6d565b84520154908083019060ff831682526040840161ffff90818560081c16815260ff61099e6060880194610979838960181c1687611bef565b8260808a0198821c161515885260a060405199828b5251918a015260c08901906118bf565b945116604087015251166060850152519160048310156109cb578392608084015251151560a08301520390f35b634e487b7160e01b600052602160045260246000fd5b34610128576020806003193601126101285760ff6109fd61174d565b600060408051610a0c816117ea565b8151610a1781611805565b60803682378152606086820152015216610a3360058210611d13565b60005260ca815260406000209060405191610a4d836117ea565b610a5681611e2a565b8352610aa660ff6002610a6b60018501611c6d565b9385870194855201541691604085019215158352610a9460405195858796875286019051611893565b5160c060a085015260e08401906118bf565b9051151560c08301520390f35b34610128576000366003190112610128577f00000000000000000000000000000000000000000000000000000000000000006001600160a01b03163003610b0c576020604051600080516020611e9e8339815191528152f35b60405162461bcd60e51b815260206004820152603860248201527f555550535570677261646561626c653a206d757374206e6f742062652063616c60448201527f6c6564207468726f7567682064656c656761746563616c6c00000000000000006064820152608490fd5b604036600319011261012857610b8b6117b9565b6024356001600160401b038111610128573660238201121561012857610bbb90369060248160040135910161185c565b6001600160a01b037f000000000000000000000000000000000000000000000000000000000000000081169190610bf4308414156119a0565b610c11600080516020611e9e833981519152938285541614611a01565b610c196118ff565b7f4910fdfa16fed3260ed0e7147f7cc6da11a60208b5b9406d12a635614ffd91435460ff1615610c4f5750505061016690611a62565b8316604051926352d1902d60e01b84526020938481600481865afa60009181610e06575b50610cd45760405162461bcd60e51b815260048101869052602e60248201527f45524331393637557067726164653a206e657720696d706c656d656e7461746960448201526d6f6e206973206e6f74205555505360901b6064820152608490fd5b93929303610daf57610ce584611a62565b7fbc7cd75a20ee27fd9adebab32041f755214dbc6bffa90cc0225b39da2e5c2d3b600080a2815115801590610da7575b610d1b57005b6101669260008060405194610d2f866117ea565b602786527f416464726573733a206c6f772d6c6576656c2064656c65676174652063616c6c85870152660819985a5b195960ca1b60408701528481519101845af4903d15610d9e573d610d8181611841565b90610d8f6040519283611820565b8152600081943d92013e611af2565b60609250611af2565b506001610d15565b60405162461bcd60e51b815260048101839052602960248201527f45524331393637557067726164653a20756e737570706f727465642070726f786044820152681a58589b195555525160ba1b6064820152608490fd5b9091508581813d8311610e2e575b610e1e8183611820565b8101031261012857519087610c73565b503d610e14565b346101285760e036600319011261012857610e4e61174d565b60a490368211610128576001600160401b0390823582811161012857610e7890369060040161177d565b909160c435908115158092036101285760ff90610e936118ff565b1693610ea160058610611d13565b60005b600481106110d7575060405195610eba876117ea565b60405190610ec782611805565b6024825b8282106110bf575050508652610ee236848661185c565b906020808801928352604088019384528660005260ca81526040600020975160009060005b83600482106110995750505088556001908189019351805193841161011257610f308554611bfb565b601f8111611069575b5081601f8511600114610fd55750928080610fa797947f42e349952e50b50f98db671f404474dc01def61592268ee8a847212fe166a96d9b9c9794600297600094610fca575b50501b916000199060031b1c19161790555b51151591019060ff801983541691151516179055565b61062e604051928392610fb984611df6565b60a0608085015260a0840191611c4c565b015192508d80610f7f565b9190601f9493941984168660005283600020936000905b82821061105257505092600295928592610fa799967f42e349952e50b50f98db671f404474dc01def61592268ee8a847212fe166a96d9d9e999610611039575b505050811b019055610f91565b015160001960f88460031b161c191690558b808061102c565b808886978294978701518155019601940190610fec565b611093908660005283600020601f870160051c81019185881061070357601f0160051c0190611c35565b8a610f39565b82519293919260019261ffff600486901b81811b199092169216901b1793019101610f07565b602080916110cc846117aa565b815201910190610ecb565b806110ed61ffff6107b76107b26110f295611d73565b611d4e565b610ea4565b3461012857602080600319360112610128576111116117b9565b6001600160a01b03917f00000000000000000000000000000000000000000000000000000000000000008316611149308214156119a0565b611166600080516020611e9e833981519152918583541614611a01565b61116e6118ff565b60405190828201948286106001600160401b0387111761011257856040526000835260ff7f4910fdfa16fed3260ed0e7147f7cc6da11a60208b5b9406d12a635614ffd914354166000146111ca57505050506101669150611a62565b8492939416906040516352d1902d60e01b81528581600481865afa60009181611358575b5061124f5760405162461bcd60e51b815260048101879052602e60248201527f45524331393637557067726164653a206e657720696d706c656d656e7461746960448201526d6f6e206973206e6f74205555505360901b6064820152608490fd5b949394036113015761126082611a62565b7fbc7cd75a20ee27fd9adebab32041f755214dbc6bffa90cc0225b39da2e5c2d3b600080a28251158015906112f9575b61129657005b60008061016695604051956112aa876117ea565b602787527f416464726573733a206c6f772d6c6576656c2064656c65676174652063616c6c86880152660819985a5b195960ca1b60408801525190845af4903d15610d9e573d610d8181611841565b506000611290565b60405162461bcd60e51b815260048101849052602960248201527f45524331393637557067726164653a20756e737570706f727465642070726f786044820152681a58589b195555525160ba1b6064820152608490fd5b9091508681813d8311611380575b6113708183611820565b81010312610128575190886111ee565b503d611366565b346101285760c0366003190112610128576113a061174d565b6113a861175d565b6113b061176d565b6001600160401b039190606435838111610128576113d290369060040161177d565b6084929192359461ffff861686036101285760a435908115158203610128576113f96118ff565b600460ff8916101561171757600560ff871610156116df5760ff84161515806116d1575b1561169c5761ffff8716156116665760405160f889811b6001600160f81b03199081166020840190815289831b821660218501529187901b16602283015290611469816023810161090b565b51902060405192611479846117cf565b61148436868961185c565b845260ff8616602085015261ffff891660408501526114a960ff8b1660608601611bef565b1515608084015260005260c960205260406000209082518051918211610112576114d38354611bfb565b601f8111611634575b50602090601f83116001146115c7576001939291600091836115bc575b5050600019600383901b1c191690831b1781555b019460ff6020830151169486549562ffff00604085015160081b169160608501519560048710156109cb577f33f28c54c8d68550cf1e9a851bef0ada59d69feb3f97f3bcc8fbb5c1fd012a4a9960ff998a9863ff00000061ffff976115ac9764ff0000000060808e9d0151151560201b169464ffffffffff191617179160181b1617179055604051988998168852606060208901526060880191611c4c565b97166040850152169516930390a3005b015190508b806114f9565b908360005260206000209160005b601f198516811061161c575091839160019594938694601f19811610611603575b505050811b01815561150d565b015160001960f88460031b161c191690558b80806115f6565b919260206001819286850151815501940192016115d5565b61166090846000526020600020601f850160051c8101916020861061070357601f0160051c0190611c35565b8a6114dc565b60405162461bcd60e51b815260206004820152600e60248201526d496e76616c696420706f696e747360901b6044820152606490fd5b60405162461bcd60e51b815260206004820152600d60248201526c125b9d985b1a59081b195d995b609a1b6044820152606490fd5b50600a60ff8516111561141d565b60405162461bcd60e51b815260206004820152601060248201526f125b9d985b1a59081cdada5b1b08125160821b6044820152606490fd5b60405162461bcd60e51b815260206004820152600e60248201526d24b73b30b634b21039b2b0b9b7b760911b6044820152606490fd5b6004359060ff8216820361012857565b6024359060ff8216820361012857565b6044359060ff8216820361012857565b9181601f84011215610128578235916001600160401b038311610128576020838186019501011161012857565b359061ffff8216820361012857565b600435906001600160a01b038216820361012857565b60a081019081106001600160401b0382111761011257604052565b606081019081106001600160401b0382111761011257604052565b608081019081106001600160401b0382111761011257604052565b90601f801991011681019081106001600160401b0382111761011257604052565b6001600160401b03811161011257601f01601f191660200190565b92919261186882611841565b916118766040519384611820565b829481845281830111610128578281602093846000960137010152565b6000915b600483106118a457505050565b60019061ffff83511681526020809101920192019190611897565b919082519283825260005b8481106118eb575050826000602080949584010152601f8019910116010190565b6020818301810151848301820152016118ca565b6097546001600160a01b0316330361191357565b606460405162461bcd60e51b815260206004820152602060248201527f4f776e61626c653a2063616c6c6572206973206e6f7420746865206f776e65726044820152fd5b609780546001600160a01b039283166001600160a01b0319821681179092559091167f8be0079c531659141344cd1fd0a4f28419497f9722a3daafe3b4186f6b6457e0600080a3565b156119a757565b60405162461bcd60e51b815260206004820152602c60248201527f46756e6374696f6e206d7573742062652063616c6c6564207468726f7567682060448201526b19195b1959d85d1958d85b1b60a21b6064820152608490fd5b15611a0857565b60405162461bcd60e51b815260206004820152602c60248201527f46756e6374696f6e206d7573742062652063616c6c6564207468726f7567682060448201526b6163746976652070726f787960a01b6064820152608490fd5b803b15611a9757600080516020611e9e83398151915280546001600160a01b0319166001600160a01b03909216919091179055565b60405162461bcd60e51b815260206004820152602d60248201527f455243313936373a206e657720696d706c656d656e746174696f6e206973206e60448201526c1bdd08184818dbdb9d1c9858dd609a1b6064820152608490fd5b91929015611b545750815115611b06575090565b3b15611b0f5790565b60405162461bcd60e51b815260206004820152601d60248201527f416464726573733a2063616c6c20746f206e6f6e2d636f6e74726163740000006044820152606490fd5b825190915015611b675750805190602001fd5b60405162461bcd60e51b815260206004820152908190611b8b9060248301906118bf565b0390fd5b15611b9657565b60405162461bcd60e51b815260206004820152602b60248201527f496e697469616c697a61626c653a20636f6e7472616374206973206e6f74206960448201526a6e697469616c697a696e6760a81b6064820152608490fd5b60048210156109cb5752565b90600182811c92168015611c2b575b6020831014611c1557565b634e487b7160e01b600052602260045260246000fd5b91607f1691611c0a565b818110611c40575050565b60008155600101611c35565b908060209392818452848401376000828201840152601f01601f1916010190565b9060405191826000825492611c8184611bfb565b908184526001948581169081600014611cf05750600114611cad575b5050611cab92500383611820565b565b9093915060005260209081600020936000915b818310611cd8575050611cab93508201013880611c9d565b85548884018501529485019487945091830191611cc0565b915050611cab94506020925060ff191682840152151560051b8201013880611c9d565b15611d1a57565b60405162461bcd60e51b815260206004820152600c60248201526b496e76616c6964207261636560a01b6044820152606490fd5b6000198114611d5d5760010190565b634e487b7160e01b600052601160045260246000fd5b6004811015611d855760051b60240190565b634e487b7160e01b600052603260045260246000fd5b3561ffff811681036101285790565b15611db157565b60405162461bcd60e51b815260206004820152601760248201527f496e76616c6964206174747269627574652076616c75650000000000000000006044820152606490fd5b60246000915b60048310611e0957505050565b60019061ffff611e18846117aa565b16815292019160209182019101611dfc565b90604051915461ffff908181168452818160101c166020850152818160201c16604085015260301c166060830152611cab82611805565b15611e6857565b60405162461bcd60e51b815260206004820152600d60248201526c496e76616c696420636c61737360981b6044820152606490fdfe360894a13ba1a3210667c828492db98dca3e2076cc3735a920a3ca505d382bbca26469706673582212201a3428bacb489209c95a6c41c12bca04e8f9616ac4b93104b80d33a7bdf0c1b864736f6c63430008140033","linkReferences":{}},"methodIdentifiers":{"VERSION()":"ffa1ad74","getClass(uint8)":"8bb5ad96","getRace(uint8)":"5e2bb68d","getSkill(uint8,uint8,uint8)":"6503e54b","initialize()":"8129fc1c","owner()":"8da5cb5b","proxiableUUID()":"52d1902d","renounceOwnership()":"715018a6","setClass(uint8,uint16[4],uint16[4],string,bool)":"732ba8bb","setRace(uint8,uint16[4],string,bool)":"3fd6a5c2","setSkill(uint8,uint8,uint8,string,uint16,bool)":"14392036","transferOwnership(address)":"f2fde38b","upgradeTo(address)":"3659cfe6","upgradeToAndCall(address,bytes)":"4f1ef286"},"id":86}