{"abi":[{"type":"constructor","inputs":[{"name":"defaultToken","type":"address","internalType":"address"},{"name":"nativePrice","type":"uint256","internalType":"uint256"},{"name":"tokenPrice","type":"uint256","internalType":"uint256"}],"stateMutability":"nonpayable"},{"type":"function","name":"VERSION","inputs":[],"outputs":[{"name":"","type":"string","internalType":"string"}],"stateMutability":"view"},{"type":"function","name":"approve","inputs":[{"name":"to","type":"address","internalType":"address"},{"name":"tokenId","type":"uint256","internalType":"uint256"}],"outputs":[],"stateMutability":"nonpayable"},{"type":"function","name":"balanceOf","inputs":[{"name":"owner","type":"address","internalType":"address"}],"outputs":[{"name":"","type":"uint256","internalType":"uint256"}],"stateMutability":"view"},{"type":"function","name":"burn","inputs":[{"name":"tokenId","type":"uint256","internalType":"uint256"}],"outputs":[],"stateMutability":"nonpayable"},{"type":"function","name":"defaultNativePrice","inputs":[],"outputs":[{"name":"","type":"uint256","internalType":"uint256"}],"stateMutability":"view"},{"type":"function","name":"defaultPaymentToken","inputs":[],"outputs":[{"name":"","type":"address","internalType":"contract IERC20"}],"stateMutability":"view"},{"type":"function","name":"defaultTokenPrice","inputs":[],"outputs":[{"name":"","type":"uint256","internalType":"uint256"}],"stateMutability":"view"},{"type":"function","name":"exists","inputs":[{"name":"tokenId","type":"uint256","internalType":"uint256"}],"outputs":[{"name":"","type":"bool","internalType":"bool"}],"stateMutability":"view"},{"type":"function","name":"getAcceptedTokens","inputs":[{"name":"tokenId","type":"uint256","internalType":"uint256"}],"outputs":[{"name":"","type":"address[]","internalType":"address[]"}],"stateMutability":"view"},{"type":"function","name":"getApproved","inputs":[{"name":"tokenId","type":"uint256","internalType":"uint256"}],"outputs":[{"name":"","type":"address","internalType":"address"}],"stateMutability":"view"},{"type":"function","name":"getDefaultNativePrice","inputs":[],"outputs":[{"name":"","type":"uint256","internalType":"uint256"}],"stateMutability":"view"},{"type":"function","name":"getDefaultPaymentToken","inputs":[],"outputs":[{"name":"","type":"address","internalType":"address"}],"stateMutability":"view"},{"type":"function","name":"getDefaultTokenPrice","inputs":[],"outputs":[{"name":"","type":"uint256","internalType":"uint256"}],"stateMutability":"view"},{"type":"function","name":"getPriceConfig","inputs":[{"name":"tokenId","type":"uint256","internalType":"uint256"}],"outputs":[{"name":"","type":"tuple","internalType":"struct IHeroNFT.PriceConfig","components":[{"name":"tokenAddress","type":"address","internalType":"address"},{"name":"price","type":"uint256","internalType":"uint256"},{"name":"isActive","type":"bool","internalType":"bool"}]}],"stateMutability":"view"},{"type":"function","name":"isApprovedForAll","inputs":[{"name":"owner","type":"address","internalType":"address"},{"name":"operator","type":"address","internalType":"address"}],"outputs":[{"name":"","type":"bool","internalType":"bool"}],"stateMutability":"view"},{"type":"function","name":"isApprovedForToken","inputs":[{"name":"operator","type":"address","internalType":"address"},{"name":"tokenId","type":"uint256","internalType":"uint256"}],"outputs":[{"name":"","type":"bool","internalType":"bool"}],"stateMutability":"view"},{"type":"function","name":"mint","inputs":[{"name":"to","type":"address","internalType":"address"},{"name":"tokenId","type":"uint256","internalType":"uint256"}],"outputs":[],"stateMutability":"payable"},{"type":"function","name":"mintBatch","inputs":[{"name":"to","type":"address","internalType":"address"},{"name":"tokenIds","type":"uint256[]","internalType":"uint256[]"}],"outputs":[],"stateMutability":"payable"},{"type":"function","name":"mintBatchWithToken","inputs":[{"name":"to","type":"address","internalType":"address"},{"name":"tokenIds","type":"uint256[]","internalType":"uint256[]"},{"name":"paymentToken","type":"address","internalType":"address"}],"outputs":[],"stateMutability":"nonpayable"},{"type":"function","name":"mintWithToken","inputs":[{"name":"to","type":"address","internalType":"address"},{"name":"tokenId","type":"uint256","internalType":"uint256"},{"name":"paymentToken","type":"address","internalType":"address"}],"outputs":[],"stateMutability":"nonpayable"},{"type":"function","name":"name","inputs":[],"outputs":[{"name":"","type":"string","internalType":"string"}],"stateMutability":"view"},{"type":"function","name":"owner","inputs":[],"outputs":[{"name":"","type":"address","internalType":"address"}],"stateMutability":"view"},{"type":"function","name":"ownerOf","inputs":[{"name":"tokenId","type":"uint256","internalType":"uint256"}],"outputs":[{"name":"","type":"address","internalType":"address"}],"stateMutability":"view"},{"type":"function","name":"priceConfigs","inputs":[{"name":"","type":"uint256","internalType":"uint256"}],"outputs":[{"name":"tokenAddress","type":"address","internalType":"address"},{"name":"price","type":"uint256","internalType":"uint256"},{"name":"isActive","type":"bool","internalType":"bool"}],"stateMutability":"view"},{"type":"function","name":"renounceOwnership","inputs":[],"outputs":[],"stateMutability":"nonpayable"},{"type":"function","name":"safeTransferFrom","inputs":[{"name":"from","type":"address","internalType":"address"},{"name":"to","type":"address","internalType":"address"},{"name":"tokenId","type":"uint256","internalType":"uint256"}],"outputs":[],"stateMutability":"nonpayable"},{"type":"function","name":"safeTransferFrom","inputs":[{"name":"from","type":"address","internalType":"address"},{"name":"to","type":"address","internalType":"address"},{"name":"tokenId","type":"uint256","internalType":"uint256"},{"name":"data","type":"bytes","internalType":"bytes"}],"outputs":[],"stateMutability":"nonpayable"},{"type":"function","name":"setApprovalForAll","inputs":[{"name":"operator","type":"address","internalType":"address"},{"name":"approved","type":"bool","internalType":"bool"}],"outputs":[],"stateMutability":"nonpayable"},{"type":"function","name":"setDefaultPaymentToken","inputs":[{"name":"token","type":"address","internalType":"address"}],"outputs":[],"stateMutability":"nonpayable"},{"type":"function","name":"setDefaultPrices","inputs":[{"name":"nativePrice","type":"uint256","internalType":"uint256"},{"name":"tokenPrice","type":"uint256","internalType":"uint256"}],"outputs":[],"stateMutability":"nonpayable"},{"type":"function","name":"setPriceConfig","inputs":[{"name":"tokenId","type":"uint256","internalType":"uint256"},{"name":"tokenAddress","type":"address","internalType":"address"},{"name":"price","type":"uint256","internalType":"uint256"}],"outputs":[],"stateMutability":"nonpayable"},{"type":"function","name":"supportsInterface","inputs":[{"name":"interfaceId","type":"bytes4","internalType":"bytes4"}],"outputs":[{"name":"","type":"bool","internalType":"bool"}],"stateMutability":"view"},{"type":"function","name":"symbol","inputs":[],"outputs":[{"name":"","type":"string","internalType":"string"}],"stateMutability":"view"},{"type":"function","name":"tokenURI","inputs":[{"name":"tokenId","type":"uint256","internalType":"uint256"}],"outputs":[{"name":"","type":"string","internalType":"string"}],"stateMutability":"view"},{"type":"function","name":"transferFrom","inputs":[{"name":"from","type":"address","internalType":"address"},{"name":"to","type":"address","internalType":"address"},{"name":"tokenId","type":"uint256","internalType":"uint256"}],"outputs":[],"stateMutability":"nonpayable"},{"type":"function","name":"transferOwnership","inputs":[{"name":"newOwner","type":"address","internalType":"address"}],"outputs":[],"stateMutability":"nonpayable"},{"type":"event","name":"Approval","inputs":[{"name":"owner","type":"address","indexed":true,"internalType":"address"},{"name":"approved","type":"address","indexed":true,"internalType":"address"},{"name":"tokenId","type":"uint256","indexed":true,"internalType":"uint256"}],"anonymous":false},{"type":"event","name":"ApprovalForAll","inputs":[{"name":"owner","type":"address","indexed":true,"internalType":"address"},{"name":"operator","type":"address","indexed":true,"internalType":"address"},{"name":"approved","type":"bool","indexed":false,"internalType":"bool"}],"anonymous":false},{"type":"event","name":"NFTMinted","inputs":[{"name":"to","type":"address","indexed":true,"internalType":"address"},{"name":"tokenId","type":"uint256","indexed":true,"internalType":"uint256"},{"name":"paymentToken","type":"address","indexed":false,"internalType":"address"},{"name":"price","type":"uint256","indexed":false,"internalType":"uint256"},{"name":"timestamp","type":"uint256","indexed":false,"internalType":"uint256"}],"anonymous":false},{"type":"event","name":"OwnershipTransferred","inputs":[{"name":"previousOwner","type":"address","indexed":true,"internalType":"address"},{"name":"newOwner","type":"address","indexed":true,"internalType":"address"}],"anonymous":false},{"type":"event","name":"PriceConfigUpdated","inputs":[{"name":"tokenId","type":"uint256","indexed":true,"internalType":"uint256"},{"name":"tokenAddress","type":"address","indexed":false,"internalType":"address"},{"name":"price","type":"uint256","indexed":false,"internalType":"uint256"},{"name":"timestamp","type":"uint256","indexed":false,"internalType":"uint256"}],"anonymous":false},{"type":"event","name":"Transfer","inputs":[{"name":"from","type":"address","indexed":true,"internalType":"address"},{"name":"to","type":"address","indexed":true,"internalType":"address"},{"name":"tokenId","type":"uint256","indexed":true,"internalType":"uint256"}],"anonymous":false}],"bytecode":{"object":"0x608034620003ba576001600160401b0390601f90601f19620023d23881900384810183168401919086831185841017620003a457808592606094604052833981010312620003ba5781516001600160a01b03948582169291839003620003ba576020906040828601519501519562000076620003bf565b92600884526712195c9bc813919560c21b8185015262000095620003bf565b9060048252634845524f60e01b81830152845195848711620003a4576000968754966001978881811c9116801562000399575b85821014620003855790818784931162000332575b508490878311600114620002d1578a92620002c5575b5050600019600383901b1c191690871b1787555b8251948511620002b15785548681811c91168015620002a6575b83821014620002925790818587969594931162000239575b5081938511600114620001d45750508592620001c8575b5050600019600383901b1c191690821b1790555b60065460018060a01b03199133838316176006557f8be0079c531659141344cd1fd0a4f28419497f9722a3daafe3b4186f6b6457e0604051973393169180a36009541617600955600855600a5560ff19600b5416600b55611ff29081620003e08239f35b01519050388062000150565b869593929193168588528388209388905b8282106200021f575050841162000205575b505050811b01905562000164565b015160001960f88460031b161c19169055388080620001f7565b8484015186558897909501949384019390810190620001e5565b9091929394508688528288208580880160051c82019285891062000288575b9188978a9297969594930160051c01915b8281106200027957505062000139565b8a815588975089910162000269565b9250819262000258565b634e487b7160e01b88526022600452602488fd5b90607f169062000121565b634e487b7160e01b87526041600452602487fd5b015190503880620000f3565b90848a9416918b8052868c20928c5b888282106200031b575050841162000301575b505050811b01875562000107565b015160001960f88460031b161c19169055388080620002f3565b8385015186558d97909501949384019301620002e0565b909150898052848a208780850160051c8201928786106200037b575b918b91869594930160051c01915b8281106200036c575050620000dd565b8c81558594508b91016200035c565b925081926200034e565b634e487b7160e01b8a52602260045260248afd5b90607f1690620000c8565b634e487b7160e01b600052604160045260246000fd5b600080fd5b60408051919082016001600160401b03811183821017620003a45760405256fe60806040908082526004918236101561001757600080fd5b600091823560e01c90816301ffc9a7146115195750806306fdde031461144e578063081812fc1461142e578063095ea7b3146112c0578063107012281461112057806318b5502d1461113e57806318e12e031461112057806318f9de39146110f957806323b872dd146110d457806332282f9e146110ac57806340c10f1914610fcb57806342842e0e14610f9857806342966c6814610eb857806349874bb614610dcf5780634f558e7914610d905780635bb262d8146105a357806361dacd6a14610b6d5780636352211e14610b3c5780636412173e1461037d57806370a0823114610aa7578063715018a614610a4a57806375ceb341146108a85780638da5cb5b146108805780638e118a26146107fd5780639368d9b0146107b057806395d89b411461069a578063a22cb465146105c1578063ae7101ca146105a3578063b88d4fde146104ef578063c1be87ad1461040f578063c87b56dd146103a5578063d49f012d1461037d578063e985e9c514610330578063f2fde38b14610265578063f74b059e146102225763ffa1ad74146101b157600080fd5b3461021e578160031936011261021e578051918183019083821067ffffffffffffffff83111761020b5750610207935081526005825264312e302e3160d81b602083015251918291602083526020830190611585565b0390f35b634e487b7160e01b815260418552602490fd5b5080fd5b82346102625760203660031901126102625761023c6115c5565b6102446116fe565b60018060a01b03166001600160601b0360a01b600954161760095580f35b80fd5b50823461032c57602036600319011261032c576102806115c5565b906102896116fe565b6001600160a01b039182169283156102da575050600654826001600160601b0360a01b821617600655167f8be0079c531659141344cd1fd0a4f28419497f9722a3daafe3b4186f6b6457e08380a380f35b906020608492519162461bcd60e51b8352820152602660248201527f4f776e61626c653a206e6577206f776e657220697320746865207a65726f206160448201526564647265737360d01b6064820152fd5b8280fd5b503461021e578060031936011261021e5760ff8160209361034f6115c5565b6103576115f6565b6001600160a01b0391821683526005875283832091168252855220549151911615158152f35b503461021e578160031936011261021e5760095490516001600160a01b039091168152602090f35b503461021e57602036600319011261021e576103e26103dd6102079435600052600260205260018060a01b0360406000205416151590565b611756565b8181516103ee816116a4565b528051916103fb836116a4565b825251918291602083526020830190611585565b50823461032c57606036600319011261032c577f3af563efd6157e7c44721b2c1fc60968410aca31db1ec73491129d9ae881c2ec90359161044e6115f6565b906104e96044359161045e6116fe565b6104c4815161046c81611672565b600260018060a01b0380881683526020830187815285840191600183528b8d526007602052868d209451166001600160601b0360a01b85541617845551600184015551151591019060ff801983541691151516179055565b516001600160a01b039093168352602083019190915242604083015281906060820190565b0390a280f35b5082903461032c57608036600319011261032c5761050b6115c5565b906105146115f6565b604435906064359467ffffffffffffffff861161059f573660238701121561059f578501359361054f610546866116e2565b945194856116c0565b8484528636602487890101116102625760208661059797602461059c9a01838901378601015261058761058284336118df565b611806565b6105928383836119a7565b611bd2565b6118bb565b80f35b8680fd5b503461021e578160031936011261021e576020906008549051908152f35b5082903461032c578060031936011261032c576105dc6115c5565b9060243580151592838203610696576001600160a01b03169333851461065357506106269033865260056020528286208587526020528286209060ff801983541691151516179055565b519081527f17307eab39ab6107e8899845ad3d59bd9653f200f220920489ca2b5937696c3160203392a380f35b606490602084519162461bcd60e51b8352820152601960248201527f4552433732313a20617070726f766520746f2063616c6c6572000000000000006044820152fd5b8580fd5b5090346102625780600319360112610262578151918160019283549384811c918186169586156107a6575b6020968785108114610793578899509688969785829a52918260001461076c575050600114610711575b50505061020792916107029103856116c0565b51928284938452830190611585565b91908693508083527fb10e2d527612073b26eecdfd717e6a320cf44b4afac2b0732d9fcbe2b7fa0cf65b82841061075457505050820101816107026102076106ef565b8054848a01860152889550879490930192810161073b565b60ff19168782015293151560051b86019093019350849250610702915061020790506106ef565b634e487b7160e01b835260228a52602483fd5b92607f16926106c5565b50823461032c57602036600319011261032c5760609282913581526007602052209060018060a01b038254169160ff60026001830154920154169082519384526020840152151590820152f35b50823461032c57602036600319011261032c5782829160609483805161082281611672565b828152826020820152015235815260076020522090805161084281611672565b60018060a01b03835416928382528260ff60026001840154936020860194855201541692019115158252825193845251602084015251151590820152f35b503461021e578160031936011261021e5760065490516001600160a01b039091168152602090f35b5080839160031936011261032c576108be6115c5565b9060243567ffffffffffffffff8111610a46576108de9036908501611641565b91600b549460ff936108f285881615611c89565b60018060ff1980991617600b55889589915b8a8484106109dc575050505061091c85341015611cd5565b875b8181106109b95750843411610989575b1561097657505160008152602081019290925242604083015235916001600160a01b031690600080516020611f9d8339815191529080606081015b0390a3600b5416600b5580f35b634e487b7160e01b875260329052602486fd5b878080806109978934611c59565b8181156109b0575b3390f161092e5782513d89823e3d90fd5b506108fc61099f565b806109d26109cb6109d7938589611f66565b3589611d18565b611f57565b61091e565b83988288610a28936109f4610a2e9697988a8e611f66565b35815260078d8d6020918383528c8c6002888820015416600014610a3557610a1b92611f66565b3583525220015490611c7c565b97611f57565b9190610904565b505050505050505060085490611c7c565b8480fd5b8234610262578060031936011261026257610a636116fe565b600680546001600160a01b0319811690915581906001600160a01b03167f8be0079c531659141344cd1fd0a4f28419497f9722a3daafe3b4186f6b6457e08280a380f35b50913461021e57602036600319011261021e576001600160a01b03610aca6115c5565b16908115610ae75760208480858581526003845220549051908152f35b608490602085519162461bcd60e51b8352820152602960248201527f4552433732313a2061646472657373207a65726f206973206e6f7420612076616044820152683634b21037bbb732b960b91b6064820152fd5b5090346102625760203660031901126102625750610b5c602092356117a2565b90516001600160a01b039091168152f35b50823461032c57606036600319011261032c57610b886115c5565b9060243567ffffffffffffffff8111610a4657610ba89036908301611641565b90610bb16115e0565b600b549560ff94610bc486891615611c89565b600160ff199889168117600b556001600160a01b0395908a9085881690610bec821515611e7b565b829983915b858310610cfd57505085516323b872dd60e01b81523386820190815230602082810191909152604082018d905291949193859350918391829060600103925af1908115610cf35790610c4a918c91610cc5575b50611f19565b895b818110610ca7575015610c945750516001600160a01b039091168152602081019390935242604084015235921690600080516020611f9d833981519152908060608101610969565b634e487b7160e01b895260329052602488fd5b806109d2610cb9610cc093858a611f66565b358b611d18565b610c4c565b610ce6915060203d8111610cec575b610cde81836116c0565b810190611f01565b8c610c44565b503d610cd4565b84513d8d823e3d90fd5b919a8a90610d69929495610d128e898e611f66565b3581528960209160078352208660028c5192610d2d84611672565b805487168452888101549484019485520154161580158c830152610d7357610d6393610d5c9151168814611ebf565b5190611c7c565b9a611f57565b90918d9392610bf1565b5050610d87610d6392600954168714611ebf565b600a5490611c7c565b5090346102625760203660031901126102625750610dc660209235600052600260205260018060a01b0360406000205416151590565b90519015158152f35b509190346102625760208060031936011261021e578351918335610df284611672565b600284528284019486368737845115610ea55750818552808252600783528582206002015460ff1615610e8557815260078252848120546001600160a01b0316610e3b84611f8c565b52909392915b83519485948186019282875251809352850193925b828110610e6557505050500390f35b83516001600160a01b031685528695509381019392810192600101610e56565b506009546001600160a01b0316610e9b84611f8c565b5290939291610e41565b634e487b7160e01b835260329052602482fd5b5082903461032c57602036600319011261032c57813591610ed983336118df565b15610f6757908391610eea846117a2565b50610ef4846117a2565b848452602091825282842080546001600160a01b03199081169091556001600160a01b03909116808552600383528385208054600019019055858552600290925291832080549092169091557fddf252ad1be2c89b69c2b068fc378daa952ba7f163c4a11628f55a4df523b3ef8280a480f35b6020606492519162461bcd60e51b8352820152600c60248201526b139bdd08185c1c1c9bdd995960a21b6044820152fd5b503461021e5761059761059c91610fae3661160c565b91925192610fbb846116a4565b86845261058761058284336118df565b508060031936011261021e57610fdf6115c5565b600b549160243591610ff460ff851615611c89565b60ff19938416600117600b558285526007602052818520600281015460ff16156110a25760010154915b61102a83341015611cd5565b6110348483611d18565b823411611073575b516000815260208101929092524260408301526001600160a01b031690600080516020611f9d833981519152908060608101610969565b858080806110818734611c59565b818115611099575b3390f161103c57513d86823e3d90fd5b506108fc611089565b506008549161101e565b503461021e578060031936011261021e57602090610dc66110cb6115c5565b602435906118df565b82346102625761059c6110e63661160c565b916110f461058284336118df565b6119a7565b5082903461032c5736600319011261021e576111136116fe565b35600855602435600a5580f35b503461021e578160031936011261021e57602090600a549051908152f35b5082903461032c57606036600319011261032c5761115a6115c5565b91602435916111676115e0565b93600b549461117960ff871615611c89565b60ff19958616600117600b556001600160a01b039281841661119c811515611e7b565b86895260076020528189208251916111b383611672565b81548716835260018201546020840190815260029092015460ff161580158585015261129b579186976020926111f061122b958a85511614611ebf565b519889925116905b85516323b872dd60e01b81523391810191825230602083015260408201939093529193849283918e918b91849160600190565b0393165af1908115611291579161125e600080516020611f9d83398151915296959492610969948c91610cc55750611f19565b6112688885611d18565b516001600160a01b03909116815260208101959095524260408601529116929081906060820190565b82513d8b823e3d90fd5b61122b9250602091506112b48760095416809214611ebf565b600a54978891906111f8565b50823461032c578160031936011261032c576112da6115c5565b6024359290916001600160a01b03919082806112f5876117a2565b169416938085146113e1578033149081156113c2575b501561135a57848652602052842080546001600160a01b03191683179055611332836117a2565b167f8c5be1e5ebec7d5bd14f71427d1e84f3dd0314c0f7b2291e5b200ac8c7c3b9258480a480f35b6020608492519162461bcd60e51b8352820152603d60248201527f4552433732313a20617070726f76652063616c6c6572206973206e6f7420746f60448201527f6b656e206f776e6572206f7220617070726f76656420666f7220616c6c0000006064820152fd5b90508652600560205281862033875260205260ff82872054168761130b565b506020608492519162461bcd60e51b8352820152602160248201527f4552433732313a20617070726f76616c20746f2063757272656e74206f776e656044820152603960f91b6064820152fd5b5090346102625760203660031901126102625750610b5c602092356117c8565b50903461026257806003193601126102625781519181825492600184811c9181861695861561150f575b6020968785108114610793578899509688969785829a52918260001461076c5750506001146114b45750505061020792916107029103856116c0565b91908693508280527f290decd9548b62a8d60345a988386fc84ba6bc95484008f6362f93160ef3e5635b8284106114f757505050820101816107026102076106ef565b8054848a0186015288955087949093019281016114de565b92607f1692611478565b8390853461032c57602036600319011261032c573563ffffffff60e01b811680910361032c57602092506380ac58cd60e01b8114908115611574575b8115611563575b5015158152f35b6301ffc9a760e01b1490508361155c565b635b5e139f60e01b81149150611555565b919082519283825260005b8481106115b1575050826000602080949584010152601f8019910116010190565b602081830181015184830182015201611590565b600435906001600160a01b03821682036115db57565b600080fd5b604435906001600160a01b03821682036115db57565b602435906001600160a01b03821682036115db57565b60609060031901126115db576001600160a01b039060043582811681036115db579160243590811681036115db579060443590565b9181601f840112156115db5782359167ffffffffffffffff83116115db576020808501948460051b0101116115db57565b6060810190811067ffffffffffffffff82111761168e57604052565b634e487b7160e01b600052604160045260246000fd5b6020810190811067ffffffffffffffff82111761168e57604052565b90601f8019910116810190811067ffffffffffffffff82111761168e57604052565b67ffffffffffffffff811161168e57601f01601f191660200190565b6006546001600160a01b0316330361171257565b606460405162461bcd60e51b815260206004820152602060248201527f4f776e61626c653a2063616c6c6572206973206e6f7420746865206f776e65726044820152fd5b1561175d57565b60405162461bcd60e51b815260206004820152601860248201527f4552433732313a20696e76616c696420746f6b656e20494400000000000000006044820152606490fd5b6000908152600260205260409020546001600160a01b03166117c5811515611756565b90565b6000818152600260205260409020546117eb906001600160a01b03161515611756565b6000908152600460205260409020546001600160a01b031690565b1561180d57565b60405162461bcd60e51b815260206004820152602d60248201527f4552433732313a2063616c6c6572206973206e6f7420746f6b656e206f776e6560448201526c1c881bdc88185c1c1c9bdd9959609a1b6064820152608490fd5b60809060208152603260208201527f4552433732313a207472616e7366657220746f206e6f6e20455243373231526560408201527131b2b4bb32b91034b6b83632b6b2b73a32b960711b60608201520190565b156118c257565b60405162461bcd60e51b8152806118db60048201611868565b0390fd5b906001600160a01b0380806118f3846117a2565b16931691838314938415611926575b508315611910575b50505090565b61191c919293506117c8565b161438808061190a565b909350600052600560205260406000208260005260205260ff604060002054169238611902565b1561195457565b60405162461bcd60e51b815260206004820152602560248201527f4552433732313a207472616e736665722066726f6d20696e636f72726563742060448201526437bbb732b960d91b6064820152608490fd5b906119cf916119b5846117a2565b6001600160a01b039391841692849290918316841461194d565b16918215611a6757816119ec916119e5866117a2565b161461194d565b7fddf252ad1be2c89b69c2b068fc378daa952ba7f163c4a11628f55a4df523b3ef60008481526004602052604081206001600160601b0360a01b9081815416905583825260036020526040822060001981540190558482526040822060018154019055858252600260205284604083209182541617905580a4565b60405162461bcd60e51b8152602060048201526024808201527f4552433732313a207472616e7366657220746f20746865207a65726f206164646044820152637265737360e01b6064820152608490fd5b91929091803b15611bc957611b05936040519081630a85bd0160e11b9384825233600483015260009687602484015260448301526080606483015281878160209a8b966084830190611585565b03926001600160a01b03165af1849181611b89575b50611b78575050503d600014611b70573d611b34816116e2565b90611b4260405192836116c0565b81528091833d92013e5b80519182611b6d5760405162461bcd60e51b8152806118db60048201611868565b01fd5b506060611b4c565b6001600160e01b0319161492509050565b9091508581813d8311611bc2575b611ba181836116c0565b81010312610a4657516001600160e01b031981168103610a46579038611b1a565b503d611b97565b50915050600190565b92939190803b15611c4f57611c24946040518092630a85bd0160e11b9485835233600484015260018060a01b03809816602484015260448301526080606483015281806020998a956084830190611585565b03916000988991165af1849181611b895750611b78575050503d600014611b70573d611b34816116e2565b5050915050600190565b91908203918211611c6657565b634e487b7160e01b600052601160045260246000fd5b91908201809211611c6657565b15611c9057565b60405162461bcd60e51b815260206004820152601f60248201527f5265656e7472616e637947756172643a207265656e7472616e742063616c6c006044820152606490fd5b15611cdc57565b60405162461bcd60e51b8152602060048201526014602482015273125b9cdd59999a58da595b9d081c185e5b595b9d60621b6044820152606490fd5b604051611d24816116a4565b6000808252926001600160a01b038316928315611deb578161059794611de996611d6c611d6684600052600260205260018060a01b0360406000205416151590565b15611e2f565b600083815260026020526040902054611d8f906001600160a01b03161515611d66565b81815260036020526040812060018154019055828152600260205260408120826001600160601b0360a01b8254161790557fddf252ad1be2c89b69c2b068fc378daa952ba7f163c4a11628f55a4df523b3ef8180a4611ab8565b565b606460405162461bcd60e51b815260206004820152602060248201527f4552433732313a206d696e7420746f20746865207a65726f20616464726573736044820152fd5b15611e3657565b60405162461bcd60e51b815260206004820152601c60248201527f4552433732313a20746f6b656e20616c7265616479206d696e746564000000006044820152606490fd5b15611e8257565b60405162461bcd60e51b815260206004820152601560248201527424b73b30b634b2103830bcb6b2b73a103a37b5b2b760591b6044820152606490fd5b15611ec657565b60405162461bcd60e51b81526020600482015260136024820152722bb937b733903830bcb6b2b73a103a37b5b2b760691b6044820152606490fd5b908160209103126115db575180151581036115db5790565b15611f2057565b60405162461bcd60e51b815260206004820152600f60248201526e151c985b9cd9995c8819985a5b1959608a1b6044820152606490fd5b6000198114611c665760010190565b9190811015611f765760051b0190565b634e487b7160e01b600052603260045260246000fd5b805160011015611f76576040019056fe46ae482d454308a4c93d1ecc70c02b0e6828f1f7e783eeb6331b2c8fbdd92adfa26469706673582212200f74e00c105c8f9880c3a89d86100471c9ed05d0115d492e967d34c6a45c1d6564736f6c63430008140033","linkReferences":{}},"methodIdentifiers":{"VERSION()":"ffa1ad74","approve(address,uint256)":"095ea7b3","balanceOf(address)":"70a08231","burn(uint256)":"42966c68","defaultNativePrice()":"ae7101ca","defaultPaymentToken()":"6412173e","defaultTokenPrice()":"18e12e03","exists(uint256)":"4f558e79","getAcceptedTokens(uint256)":"49874bb6","getApproved(uint256)":"081812fc","getDefaultNativePrice()":"5bb262d8","getDefaultPaymentToken()":"d49f012d","getDefaultTokenPrice()":"10701228","getPriceConfig(uint256)":"8e118a26","isApprovedForAll(address,address)":"e985e9c5","isApprovedForToken(address,uint256)":"32282f9e","mint(address,uint256)":"40c10f19","mintBatch(address,uint256[])":"75ceb341","mintBatchWithToken(address,uint256[],address)":"61dacd6a","mintWithToken(address,uint256,address)":"18b5502d","name()":"06fdde03","owner()":"8da5cb5b","ownerOf(uint256)":"6352211e","priceConfigs(uint256)":"9368d9b0","renounceOwnership()":"715018a6","safeTransferFrom(address,address,uint256)":"42842e0e","safeTransferFrom(address,address,uint256,bytes)":"b88d4fde","setApprovalForAll(address,bool)":"a22cb465","setDefaultPaymentToken(address)":"f74b059e","setDefaultPrices(uint256,uint256)":"18f9de39","setPriceConfig(uint256,address,uint256)":"c1be87ad","supportsInterface(bytes4)":"01ffc9a7","symbol()":"95d89b41","tokenURI(uint256)":"c87b56dd","transferFrom(address,address,uint256)":"23b872dd","transferOwnership(address)":"f2fde38b"},"id":40}